:08000000FCFF0220E1B2000048
:100400000000000000000000FFFFFFFFBE01FFFF33
:100410002DE9F04FBA4C89B005461746894621B9F7
:10042000582303FB0043D3F81490582606FB0543DA
:100430004FF400720021484693F8488009F024FCEC
:10044000402F00F0FD801AD8DFB13F2F4ED0582347
:1004500003FB05439B689F42C0F05E819A1C974254
:1004600080F05A81FF1A4FEA8828A64908EB4727EF
:100470004FF400723944484609F008FB32E0452F3A
:10048000E4E706FB0844D4E904454FF4007239461A
:10049000284609F0F9FB022385F8BF310C2385F8C3
:1004A000C0310B2385F8C231382385F8C331F823D6
:1004B00085F8C431B8233F3C85F8C5313F2385F822
:1004C000C631230A85F8CA4185F8CB31230C240EA6
:1004D00085F8CC3185F8CD41552385F8FE31AA2326
:1004E00085F8FF31002009B0BDE8F08F4FF05809C2
:1004F00009FB08474FF4FE727D693B8B002113F422
:10050000806F28460CBF0226012609F0BDFBEB23B5
:100510002B7090237C49AB7085F80190E81C01F0AA
:100520004EF84FF400733B850023EB72FF22022349
:100530002B73AA763F23F8222B762B776A753A69BC
:100540002E74A2F13F03180A85F82100180C20210F
:1005500085F82200B3F5022F4FEA1360A97385F8DE
:10056000203085F8230003D8012387F82B300EE0D4
:10057000B3F1807F01D80823F7E7B3F1007F01D8FA
:100580001023F2E7B3F1806F58D887F82B10582367
:1005900003FB0844DFF87CA194F82B3006EB032121
:1005A000A2F16003481003EB5103B3FBF0F31A0A06
:1005B00085F825201A0C85F826205E431A0E85F84A
:1005C00027205F36062202274FF0010985F82430E4
:1005D00085F832204AF828304C4985F82C7085F887
:1005E00030900822A66005F1520009F04FFAA36886
:1005F00094F82B10A3EB4102E260802285F84020A2
:100600002922697385F84220228B56057FF56AAF4F
:100610005AF828203E499B1AC4E9072305F14700F0
:100620000B2209F033FA032385F84530042385F8BB
:10063000439085F8447085F846304DE7402394E7B1
:1006400006FB0844D4E90413208BA1F15F02314971
:1006500000F4806051F8281000280CBF0225012505
:1006600001FB152294F82B10B2FBF1F24FF041017F
:100670004FF061054FF05206D97083F8E6114FF044
:1006800072019D705E701E7083F8E75183F8E5116A
:1006900083F8E4111FD0606B83F8EC01C1430A4476
:1006A000110A83F8E82183F8E911110C120E83F87E
:1006B000EB21020A83F8ED21020C83F8EA1183F89A
:1006C000EE21000EAA2283F8FF21552283F8EF01C4
:1006D00083F8FE2106E7013A110A83F8E82183F83E
:1006E000E911110C120E83F8EB21032283F8EA11B1
:1006F00083F8EC2183F8ED0183F8EE01E2E700BF17
:100700008809FF1F7C03FF1F30FF000039FF000036
:1007100042FF00007C07FF1F582101FB05410A6AC8
:1007200091F848609742C0F08A80C96911448F42AD
:1007300080F08580BA1A2FD165494FF0FF33C9E99F
:10074000001303206FF07043C9E9020309F1100997
:1007500004234FF0E00B0BFB06F64FF0580B00277D
:100760000BFB0544DFF86CE1039448460421BC46CA
:100770004FF0010AB9464FF01C084B4502D8BAF1B8
:10078000000F3ED0BCF1070F08DDC3F180029200DC
:10079000002109F079FAA5E60023DAE708FB0C64EA
:1007A000E2465EF80440002C0CF1010CEADD08FB87
:1007B0000A657544D5F80490B9F1000FE2D02C69B0
:1007C000A24230D3D5F814B05A452CD80BBFD5F877
:1007D00018903D4655464FF08109A24210D9141B8E
:1007E00001EBC41108FB07640EEB040B5EF8044038
:1007F000002C16DDBA4514D0DBF81840E443214440
:100800002F46994501F1010103F101038CBF0C460C
:100810006FF07044802B40F8044B4FF0000AACD1CD
:1008200060E60439ECE7039C039D94F82B402D8D82
:1008300001316C435746B9FBF4F94944A2E702374A
:10084000FF1A582303FB0543224993F82B305F43DB
:10085000E0234FF000094FF01C0C73430CFB0930F0
:100860000A18085800282CDD506850B302F1080A15
:100870009268974225D3DAF80420974221D804AA37
:10088000494630460BF014FADAF80020BF1A582215
:100890004FF4007302FB05420093526900EB4723BB
:1008A000494640460BF01CFAB0F5007FBFF61AAE81
:1008B000582303FB0544C0F5007263690021184406
:1008C00067E709F10109B9F1070FC7DD0020EFE77C
:1008D000F8FFFF0F9C02FF1F002070472DE9F04F2B
:1008E000038B5B05ABB0074640F1D782824A90F894
:1008F00048305168106801930AAB03C31189927A9A
:1009000019809A707D4C019B1022002110A804EBE5
:10091000832409F0B9F94FF0000A4FF00409D346D7
:10092000BAF1000F40F085800823E37274490B226E
:10093000204609F0ABF897F8483031336372BDF8C0
:100940004630002B00F09682BDF84420D9B21B0A35
:100950006376E3746374109B2377D0B2120AE27556
:10096000E2731A0A62771A0C1B0EA0752176A17425
:10097000A0732174A277E3775D463026BBF1070FA1
:1009800000F38B829DF82F30392B03BF9DF82E305A
:100990008DF82F60013301334FF010024FF000014A
:1009A00010A80CBF8DF82E308DF82F3009F06CF99F
:1009B0005946019810AA0BF07BF99DF84C300BF1C9
:1009C000010B002B00F05B82019A4E49E023534358
:1009D0001C2000FB0533CA184FF0010C01F803C0BE
:1009E0004FEAD913B7F828C0136197F82B30C2F833
:1009F000089000260CFB03F356709670D670109E7C
:100A0000B6FBF3F34B444FEAD31C203456607B63B0
:100A1000D360C2F814C006B9013B019EE0227243C4
:100A200000FB0520014403F07F038B610AF1010AFA
:100A300076E71299002900F02B819DF84C5015F0B3
:100A400002052FD0CB7A0F2B1FD00B22204609F0A6
:100A50001DF8182323732023E372109B002B3FF40F
:100A60006EAF4FEA196262754FEA194222754FEA7A
:100A7000192284F81A90E27697F82B20398D4A4390
:100A8000B3FBF2F30133994459E701F12006204604
:100A900004F12005202208F0F9FF0AF1010A31468D
:100AA0002C46CFE714910B2220210DA8169709F0B0
:100AB000EBF818238DF83F3029462A4601204FF0E5
:100AC000050C129E731C129333782E2B00F0CF80EE
:100AD0001AD80A2B00F0D2800D2B00F0CF80002B0B
:100AE00040F0CF81002AECD0022812961A9039DC0F
:100AF0000B220DA9AAE700BF59FF00007C03FF1FCE
:100B00004EFF00009C02FF1F2F2BEBD05C2BE9D087
:100B10007E2B00F2EF80AB4E1E4416F8216C16F0CF
:100B2000210F00F0B880002DCBD0B606C9D5072A1A
:100B300040F3C580002940F0F280012142F20140DB
:100B4000129A531C129313782F2B00F0EE8000F2B0
:100B5000E9800D2BF4D801FA03F30342F0D004230B
:100B600012921A93169B0593149B06930025184620
:100B70001995159400F02DFD069B804603440C2228
:100B800029460DF16E00029309F07EF820238DF8BE
:100B90006E302F238DF8763002F048FC054602F0C7
:100BA00045FC45EA004000F01F3009900028F3D0D2
:100BB000042209A91CA808F069FF02F037FC20F004
:100BC000E000C004C00C0990022209A91DA808F089
:100BD0005DFF002303930B220DF16E01039811F8C2
:100BE000013B03EB500303EBC01303F0FF03013A97
:100BF0000393F3D108F101080123B8F10D0F00F3BD
:100C0000988043F04003FF2504932E4623464FF07F
:100C1000FF320021B8F10D0F02D1029806780025AD
:100C2000501C202800F21581DFE810F098008800A1
:100C3000B600C500C800CE00D100D400D700DA004D
:100C4000DD00E000130113011301E300E600E900F9
:100C5000EC00EF00F200F500F800FB00FE000101DF
:100C600004011301130107010A010D01100132B340
:100C7000082A3FF75CAF0121082222E7002A7FF40F
:100C800033AF4FF0FF331A93182323732023E372FB
:100C90000B220AA9DAE6002D7FF449AF750715D5B6
:100CA0009DF83F5029B925F008058DF83F50072AD7
:100CB00036E025F010058DF83F50072A2FDC2AADCD
:100CC0001544013205F8743C0025FAE635077FF536
:100CD0002EAF203B9DF83F00DBB229B940F0080061
:100CE0008DF83F000320E2E740F010008DF83F0050
:100CF0000320E2E703F17F06F6B21E2E05D903F1C9
:100D00002006F6B21C2E3FF6DCAE002A7FF40FAFB1
:100D1000E52BD4D101228DF834C01546D1E60A2A3C
:100D2000CDDD0AE75C2B7FF40BAF022312921A93FE
:100D3000DEE60133DBB2A8F10D085EE7059A118DFE
:100D4000199A0132B2EB511F03F120034FEA5110FF
:100D50001ADA1992069A02998A427FD82022002133
:100D60001846079308F090FF079B049A1A7002F048
:100D7000BF02013AD2B204924FF00F02DA72039A24
:100D80005A7319461F2245E700221992189A002A21
:100D900064D0A3EB4013DDE7059A4E70128B0598E3
:100DA00042F0010202830022B8F10D0F53D10298E4
:100DB0000138029031E78D7001222BE7CE700222BC
:100DC000F2E700BF65FF00000D71032222E74E71BC
:100DD0000422E9E78D7105221CE7CE710622E3E7C4
:100DE0000D72072216E74E720822DDE78D72092286
:100DF00010E78E730A22D7E7CD730E220AE70E742E
:100E00000F22D1E74D74102204E78E741122CBE734
:100E1000CD741222FEE60E751322C5E74D7514221D
:100E2000F8E68E751522BFE7CD751622F2E60E762E
:100E30001722B9E74D761822ECE60E771922B3E7B0
:100E40004D771C22E6E68E771D22ADE7CD771E2278
:100E5000E0E6013AA8E708F10108DBE63B8B23F066
:100E600001033B83199B0C229A4404EB43140DF1BC
:100E70006E01EBE544F25A734FF4C04266E55D46FD
:100E80007CE5202B3FF647AE002A3FF41AAE202B1C
:100E90007FF417AE5F23042049E62BB0BDE8F08F46
:100EA000F8B50E4E582707FB00654FF400732B85ED
:100EB0004FF400632B614FF496632B83084B6B61F7
:100EC00085F848003F2200210446FFF7A1FA054BB0
:100ED00003EB84236B652846F8BD00BF8809FF1F1C
:100EE0008007FF1F7C03FF1F08B5044B187000012B
:100EF00002F060F9024B186008BD00BFE109FF1F56
:100F0000E409FF1FFF2837B50C4611460ED0084BE9
:100F100001381B68C5B203EB05102A01007B009560
:100F20009D5802232246A84703B030BD0020FBE7AE
:100F3000E409FF1F074B37B51B680138C5B203EB47
:100F400005102C01007B00951C590423A04703B019
:100F500030BD00BFE409FF1F084B13B51B68013803
:100F6000C1B203EB01100A01007B00919C580022E2
:100F700005231146A04702B010BD00BFE409FF1FC2
:100F8000084B13B51B680138C4B203EB04100A46C2
:100F90002101007B00945C5806230021A04702B089
:100FA00010BD00BFE409FF1F084B13B51B680138D3
:100FB000C4B203EB04102201007B00949C588AB257
:100FC00008230021A04702B010BD00BFE409FF1FA5
:100FD0002DE9F843058A954228BF154604460F4679
:100FE0000DB3D0F80480C66808EB0503B342436034
:100FF0001ED3A6EB08060368B6B2A5EB06094B4460
:10100000436008F075FA4FB132464146384608F061
:101010003DFD21684A46B81908F038FD08F060FA2D
:10102000238A5B1B238208F063FA2846BDE8F88315
:1010300008F05EFA002FF1D02A4641463846EBE729
:101040002DE9F341194F9DF82000019116463A68A9
:1010500002EB00121D4654684FEA001808F040FAEF
:10106000052D0BD0062D12D0042D019908D0002596
:1010700008F03EFA284602B0BDE8F081258AF7E77D
:101080003246204602B0BDE8F041FFF7A1BF012E75
:1010900002BF3B6843449C6834B12368258AC4E995
:1010A000013300232382E3E72546E1E7E409FF1F3C
:1010B0002DE9F041044616460F4608F011FA638AFE
:1010C000228AE18AD4F808801A4490198842C4BF61
:1010D0008A1A96B233446382E36808EB06059D42A0
:1010E00028BF2368A56021BF6D1AA560ED1A751B86
:1010F0002CBFADB2354608F0FBF92A4639464046CA
:1011000008F0C4FCAE4204D02068721B791908F0C4
:10111000BDFC08F0E5F9628AA18AB2420BD1238AAC
:101120000B44334423820023A382638208F0E0F956
:101130003046BDE8F0817318921BA3826282F5E706
:1011400070B50C4B1D780C4B1A6800241032E3B2BA
:101150009D4201D8002009E052F8106C864206D169
:1011600012F8046C8E4202D1581CC0B270BD01341A
:101170001032ECE7E109FF1FE409FF1F2DE9F74FEB
:101180008346104617461C46FFF7DAFF884601469D
:1011900020B10026304603B0BDE8F08FFFF7D0FF46
:1011A00006460028F5D01F4B00F18055D3F800907B
:1011B000BBF80030013D4FEA051A09EB0515ABB14C
:1011C000204601F0F7FF6860019078B1BBF800207D
:1011D0000092104601F0EEFF0028DAD0019B009A41
:1011E0009860C3E900001044D860DA82BBF802308E
:1011F0009BB1204601F0DEFF0446A86068B1BBF851
:1012000002B0584601F0D6FF0028C2D0C4E9000061
:10121000A0605844E060A4F816B049F80A7085F858
:101220000C80B7E7E409FF1F07B5052826D8DFE8DB
:1012300000F013252503191F13891168ADF8043038
:101240000023ADF806300E4A0978182301A8FFF7ED
:1012500095FF03B05DF804FB104603B05DF804EBA6
:1012600000F0FABA104603B05DF804EB01F00ABAD8
:10127000104603B05DF804EB00F0E2BD0020E8E7A3
:101280004110000073B50A4643780178994205463B
:1012900021D18678114801923146FFF751FF04466B
:1012A00068B10F4B019A1868EB7800EB0414032B1C
:1012B00054F80C0C06D1C48A008A241AA4B2204621
:1012C00002B070BD2946FFF7F3FE0421044670B258
:1012D00002F01CF9F3E70024F1E700BF4110000021
:1012E000E409FF1F034673B508462BB9114602B047
:1012F000BDE87040FFF7C6BFFF2B05D1114602B015
:10130000BDE870400BF096BB0648013B0468DEB2B6
:1013100004EB06133501187B009664590323A0479C
:1013200002B070BDE409FF1F07B5002370B18DF84E
:1013300000308DF801308DF8020001238DF8041083
:10134000684605218DF80330FFF79CFF03B05DF878
:1013500004FB034630B4084600245D1EA2B20134EB
:10136000295D0029FAD11AB130BC1946FFF7BABF7E
:10137000104630BC70470000014B1978FFF7E9BFF9
:10138000E009FF1F2DE9F0478F0642BF202301F03F
:10139000F70102F8013B4E0705D50028BEBF2D23FB
:1013A00002F8013B40422E4C00254FF00A0C01F0A0
:1013B000400E01F008084FF0200928B3302303E065
:1013C000BDB1137032463C46844202F10106B4FBC3
:1013D000FCF7F5D8B0FBF4F3002C03F1300ADBB2D4
:1013E00082F800A004FB130018BF012532463C46DA
:1013F000E3E7012FE7D1BEF1000FE2D1B8F1000F12
:10140000E1D082F80090DDE70A23302610466CB167
:101410003DB90D0702F1010319D5202010701846BF
:1014200006E002F8016BB4FBF3F4EFE7002DF0D017
:101430000B0606D503460D2203F8022B0A22427042
:10144000184611F0100108BF0170BDE8F0874C0686
:1014500042BF302010701846302300F8013BE7E708
:1014600000CA9A3B1FB56A46FFF78CFF6846FFF734
:1014700083FF05B05DF804FBF0B58C0644BF202364
:1014800002F8013B0B0706D51346302403F8024B44
:10149000782454701A4601F0100501F040074EB24E
:1014A00001F00701042928BF0421490096460C4693
:1014B000013CE4B2FF2C0BD1002E02EB010004DA58
:1014C0000D2353540A234370023005B90570F0BD53
:1014D000A30020FA03F303F00F0303F1300CBCF177
:1014E000390F02D927B103F1370C0EF801CBDFE732
:1014F00003F1570CF9E71FB56A46FFF7BDFF6846D1
:10150000FFF73AFF05B05DF804FB0246013013789F
:10151000202BFAD0013A002012F8013F2F2B00D8DF
:101520007047A3F13001C9B2092988BF573B4FEA80
:10153000001088BF03F00F010843EDE730B500212C
:10154000024610F8013BA3F13004092C0BD8013AF4
:1015500000200A2512F8013F303BDCB2092C07D9E4
:1015600001B1404230BD33B12D2B08BF0121E7E767
:1015700005FB0030EEE71846F4E710B50244904250
:1015800001D1002010BD10F8014B11F8013B9C4225
:10159000F5D00120F6E70138013910F8012F11F8D4
:1015A000013F22B9181E18BF0120404270479A42DD
:1015B000F3D002D84FF0FF30704701207047013957
:1015C000034611F8012F184603F8012B002AF8D121
:1015D000704703460246D01A12F8011B0029FAD1BF
:1015E000704737B590F925300446B3B1028A8A4274
:1015F00013D800258DF8023001238DF80330052221
:10160000DD23694628468DF800508DF801508DF88D
:101610000430FFF767FE84F8255003B030BD70B585
:1016200091F8263013F001020C4605D00B8A898B05
:101630005B1A23820023A38394F8243099064ED4A6
:10164000258A5DB923F0400384F8243009F056F868
:1016500029462046BDE87040FFF7C3BF616842B32A
:10166000E2684E19B24222D8521A92B2F2B1E68A18
:10167000B5EB560F06D9AE1A132E03DDB2EB550F9C
:1016800088BF520843F0400384F8243009F046F83C
:101690006368E26803449342636024BF2368636025
:1016A000054614212046FFF79CFFA58370BD2A46FE
:1016B000DDE7097809F004F894F82430E26843F093
:1016C000400384F82430636801339342636024BF8D
:1016D00023686360238A013B23821421B9E7BDE8B4
:1016E000704009F00BB800002DE9F0411F469DF84D
:1016F000188006460C46154607F0F2FEBB1E042B6A
:1017000000F28F80DFE803F0033C5E2E7D00464B45
:101710001B6803EB0818D8E9017314F4805F18BF45
:101720001F467DB1E90711D5304609F0A5F86B07D2
:1017300012D5304609F01EF8690644BF04F07F0454
:1017400087F825403C8C07F0D3FE57E0AA07EED57A
:10175000304609F009F9EAE72807EDD5304609F0E7
:1017600081F8E9E7304B1B6803EB081848F2800169
:10177000D8F804301A6A114214BF1C8B1C8AE2E7A5
:10178000294B1B6803EB0818D8F8087034B9F88A9D
:10179000398A401AA842D6DB84B2D4E707F0A8FE03
:1017A00021462A463846FFF783FC044607F098FE98
:1017B00097F8243013F0600FC5D139463046FFF753
:1017C0002EFFC0E7184B1B6803EB08182A46D8F811
:1017D000046021463046FFF7FBFB96F826301A07D7
:1017E00004460BD5338BDB0708D43368F28A716863
:1017F00003EB5202914238BF134673602046BDE8A6
:10180000F081094B1B6803EB0818D8E90132002D61
:1018100018BF134600241A681C82C3E901221C83E6
:1018200091E700248FE700BFE409FF1F38B50546A4
:10183000282001F0BFFC044610B90024204638BD22
:10184000284601F0B7FC20600028F6D0C4E901006A
:101850002844E060E582F1E72DE9F84304460E46AE
:10186000017A2648FFF76CFC054620B1730708D4BF
:101870002846BDE8F8830146FFF762FC05460028CC
:10188000F6D01F4A1F4F126805F18053013B190122
:1018900002EB031816F0020F184B535008D0E088E3
:1018A00094F80890FFF7C2FF47F82900C8F808002D
:1018B00016F0010F144E07D0A088FFF7B7FF237A68
:1018C000C8F8040046F82300207A57F8203023B1E6
:1018D00022681A62E27A83F8262056F820303BB15B
:1018E000A27A83F8252022681A62E27A83F82620F9
:1018F00088F80C00214609F041F8B9E7E916000024
:10190000E409FF1F000AFF1FE809FF1F0F4B53F8F0
:1019100021301A8AD98A91420BD901321A829A68E7
:1019200010709A68D96801328A429A6024BF1A6896
:101930009A601A6A48F28001114205D193F9250094
:1019400010B1042101F0E2BD704700BFE809FF1F9C
:10195000024B53F82010FFF762BE00BF000AFF1FC2
:1019600040B1836993F82920501C83F8290003EBC8
:101970004203D983704700002DE9F8439846344B61
:101980001C682C2303FB08440746638B002B5CD1A7
:10199000258BA2838A4228BF0A469542628328BFCC
:1019A00015461646089AE582D368DFF8A8901860B5
:1019B000D2E901035A6809EA05410A4342F080026C
:1019C00002605A68E06882F040025A609A6882F0C9
:1019D00040029A602946FFF7C3FF6760628BE38A83
:1019E0009A4206D9E3683BB19B6993F82930012BF1
:1019F00002D9608BBDE8F88308A9404608F08AFC4C
:101A00000028F6D1089BDA682F44761B258B1760D7
:101A1000D3E90102B6B2B542536828BF354609EA98
:101A20000541194341F0800101605368E06883F08B
:101A300040035360936883F0400393602946FFF7A7
:101A40008FFFE38A2B44E382C8E70020D2E700BF80
:101A5000200AFF1F0000FF032DE9F74F80460DF11C
:101A60000600924689469B4600240DF0FFFB0122AA
:101A70000178BDF806305B1A9BB2ADF806304578A8
:101A8000042D16D0052D27D0022D08D144794445C8
:101A900040D0B8FA88F46409B8F1000F3AD008448D
:101AA000002BE5D1002A0CBF5846002003B0BDE84A
:101AB000F08F002CF3D0B9F1FF0F02D085784D459F
:101AC000EDD1BAF1FF0F02D0C478544525D1BBF156
:101AD000000FEBD00224E2E7002CE0D0BBF1000FB6
:101AE000DDD05D460FE0022C0CD0877896F802C05E
:101AF00087EA0C077F0605D1B688AF88B742CED2F9
:101B0000AE80CCE708352E68002EECD1022CC6D171
:101B10002860C4E701240022C1E70324BFE737B5EA
:101B2000836993F925300446BBB1028A8A4214D8EE
:101B300000258DF8023001238DF803300522DD23C6
:101B4000694628468DF804308DF800508DF8015014
:101B5000FFF7C8FBA36983F8255003B030BD000030
:101B6000B3B50F4A044680781568E7780B462C22F7
:101B700000F07F0101FB025520F07F00A288009554
:101B8000384308F0FDFBE3783BB195F8223043F091
:101B9000010385F8273002B0B0BD1123F9E700BF7B
:101BA000200AFF1F114B73B51C6800F07F012C2326
:101BB00001FB03440025E66800952B462A46FF20DA
:101BC00008F0DEFB84F82750658384F829501EB1A5
:101BD00033683582C6E90133A36823B100221A8233
:101BE0001A68C3E9012202B070BD00BF200AFF1FBE
:101BF000F0B502281B4EC1B004460D46174607D16A
:101C000030780023012241B0BDE8F040FFF724BF47
:101C10004FF480720021684608F036F8012C6B46BC
:101C20000FD03078FF222946FFF716FF6C4654F894
:101C3000083B13B9002041B0F0BD9878FFF7B2FF20
:101C4000F5E730783A462946FFF706FF40B16C4683
:101C500054F8080B0028EDD00021FFF781FFF7E7CB
:101C60002046E8E71C0AFF1F30B58DB00C4615462C
:101C700004A905AA0390049208F04CFB039BA8B9A1
:101C8000A16991F8272042F0400281F8272060687E
:101C9000E168091A89B2A9420A460499009128BF4D
:101CA0002A461146FFF768FE0DB030BD0020FBE765
:101CB0002DE9F0418AB01C469DF8407080460E46E2
:101CC000154607F00DFCA31E042B00F2B280DFE8DE
:101CD00003F00341813AA200574B1B6803EB07173F
:101CE00015F00404B9680DD08B6993F827305A06B3
:101CF00000F19F800B68CA8A4B600A824046FFF75A
:101D0000B3FF43E02B070CD58A6992F8273023F004
:101D1000400382F8273007F0EBFB20460AB0BDE80D
:101D2000F08116F4805F7B6818BF0B466C069B69D8
:101D300093F8270005D5C10703D506F07F0683F881
:101D4000256084B2E7E73C4B1B6803EB07177B6811
:101D50001C8AE0E7384B1B6803EB0717BF68CFB955
:101D600003AB02A94046029308F0D4FA002860D1E0
:101D7000B8F1000F0CD1314B1B684BB1DA88029BD4
:101D80000093294643463046FFF7F6FD0446C2E776
:101D90002A46F4E7BB6993F8274014F00100F5D018
:101DA00036B9F88A3C8A001BA842CADA3446B2E740
:101DB00007F09EFB2A4631463846FFF779F904467C
:101DC00007F08EFBBB6993F827305A06A3D422464E
:101DD000394693E7184B1B6803EB07172A467F68C1
:101DE00031463846FFF7F4F8BB6993F827305B07B4
:101DF000044692D507F074FBBA6992F8273023F0B5
:101E0000040382F82730BB6993F8260008F046FBEC
:101E10000028F8D07FE7084B1B6803EB0717D7E9CA
:101E20000132002D18BF134600201A681882C3E93A
:101E3000012200246FE700BFE409FF1F180AFF1FFB
:101E40002DE9F041334F817B334A3C6805461C2322
:101E50000430FFF793F995F80E800646B8F1000FAD
:101E600042D02C2008FB0044AB8923836B89D90620
:101E700044BF202262845A0642BF628C42F0800234
:101E800062841B0603D5638C43F040036384234BB9
:101E900006F180521B68013A03EB02139A68E26074
:101EA00012B194612A89A282AA7B84F826207AB191
:101EB000E97B69B1B4F822C03C682C2001FB0044E6
:101EC00084F8261084F82820AA892283A4F822C046
:101ED0005B68A3601BB19C61AB7C84F824302B68E9
:101EE00023603046BDE8F0816B7C013303EB830057
:101EF00003EB4000800001F05DF908230383AB7C15
:101F00003860044680F824302946404608F004FB37
:101F1000BDE700BF200AFF1FB11C0000E409FF1F3E
:101F20002DE9F84316462A4ADDF820E0D2F800C031
:101F30002C2250430CEB00050F466A8C120619D573
:101F4000AC68B5F81890A168D4F80C80A38A49440D
:101F50004145A16023BF00222168A1605A1CA282D2
:101F6000BEF1000F06D0A2684A44904598BF22688F
:101F7000CEF800205CF800401CB9AB684BB90020DB
:101F800005E01A4631463846A0470728F5D0BDE897
:101F9000F88395F9240010B1042101F0B7FA6B8C95
:101FA0001B06ECD495F8273013F004040ED1A86872
:101FB000C28A018A521AB24204DB32463946FFF71E
:101FC00077F8DCE743F0040385F827300120DEE7EB
:101FD000200AFF1F2DE9F041C0B00D464FF480727A
:101FE00000210446684607F04FFE6B460022FF21A1
:101FF0002846FFF731FD50B3164EE8462C27D8F897
:10200000000010B940B0BDE8F0815CB92DB980780E
:10201000FFF7C8FD08F10808F1E7B8F80410FFF76A
:102020009FFDF7E78378326803F07F0303FB072205
:10203000012C92F827300BBF23F0010323F0020399
:1020400043F0020343F0010382F82730E2E7012066
:10205000D8E700BF200AFF1F2DE9F041044686B0F3
:102060000D4610461E46062C11D8DFE814F021015B
:1020700055024D0207005A02680270029B4B1F680E
:102080002C2303FB0277798BFD6841BB0DB900243B
:1020900021E02C8AC4B16A68EB689A4222BFE98ABF
:1020A000521A6A606F680096DB1B9AB2A24228BF80
:1020B0002246034611463846FFF75EFCAB692846C8
:1020C000998AFFF72CFDE2E7AA6992F8273023F0FE
:1020D000400382F82730204606B0BDE8F081FB8A35
:1020E000994200F2AC80002D00F08A802A8A002AF2
:1020F00000F08680AB6993F82940B3F81EC0012C2C
:10210000A2EB0C0C04F1FF3484BFB3F820E0A3F879
:102110001EE0E4B21FFA8CFC83F829400022A5F8E7
:1021200010C003F11E08002C37D194454AD1002A73
:1021300039D197F8270010F0300F16D0B7F818C033
:10214000B1FBFCF00CFB101080B270B9D6E9016253
:10215000506840F088003060506880F04000506067
:10216000906880F040009060012268680144E8684F
:102170006960814222BFE88A091A69600021798377
:102180002AB993F8272022F0400283F82720AB6970
:102190002846998AFFF7C3FC9DE7013C38F814E014
:1021A000724492B2BFE75B8C5A06F0D5EA8A7C8310
:1021B0009444A5F810C00096034668681146FFF7DE
:1021C000DBFBE4E76B680B44E9686B608B4222BF82
:1021D000B5F816E0A3EB0E036B60D5F804E0A1EBB5
:1021E0000E03ACEB020C9AB294454FF00003B8BF5B
:1021F0001FFA8CF27B831146034600967046DEE799
:102200003A8BB1FBF2F302FB13139BB2A3B9BB8B66
:102210008B4203D197F827309B060DD5D6E90113E1
:102220005A6842F088020A605A6882F040025A6096
:102230009A6882F040029A600020788327E73C8BFE
:10224000CB1A9BB29C4228BF1C4695B1AA6992F852
:102250002930D18B012B03F1FF3382F829302B8AEF
:1022600084BF108CD0835B1A2B82918A2846FFF79B
:1022700056FCF98A7B68F2680B441360D6E901309A
:102280001B4A416802EA04420A4342F080021A6093
:10229000436883F040034360836883F040038360B6
:1022A00021462846FFF75CFBFB8A1944F982EEE6DB
:1022B0000A780E4F22F0800439684FF00008012C94
:1022C000A1F81A8000F08D80022C00F0CC80002C48
:1022D00040F008816B78092B00F2BE80DFE803F044
:1022E0007BBCBCBCBC460ABC754A00BF200AFF1FB1
:1022F0000000FF036888EA8800F47F43B3F5407F5D
:1023000028D00ED8B3F5807F13D0B3F5007F1CD052
:102310000B6833B3B18A0022681C06B0BDE8F041F7
:102320001847B3F5C06FF3D18B48009600230A21FC
:1023300008E004A803920CF093FF039A0096002390
:10234000BDF81010FFF718FBC5E604A803920CF0C7
:102350008DFFF2E704A9C0B203920CF08DFF039A3F
:1023600008B90424B7E600960023E9E7AB78B37513
:102370000324B0E6794EA97831700020FFF72AFED9
:10238000044610B100233370EBE73B6893F92460F7
:10239000002EEDD0A91C01220DF1160007F076FBEE
:1023A00075238DF8133002238DF814300722FE2395
:1023B00004A920468DF810408DF811408DF8126068
:1023C0008DF81530FEF78EFFD2E7012263480096A4
:1023D00000231146B6E70222614800960023114609
:1023E000B0E76B780A2B23D00B2B0BD0002B33D10B
:1023F0005A4B1B78002BB4D002225A480096002377
:10240000114626E0554B1B78002BAAD0A9886E8870
:10241000C9B2FF2240460391FFF7EAFB2046039929
:10242000F2B2FFF7E5FB00280CBF0324042452E6B8
:102430004A4B1B78002B94D0A9884246C9B202208F
:10244000FFF7D6FB00288CD0009643462246214653
:102450000330FFF791FA1AE60B68002B81D0B18A9E
:102460000022284659E795F801C0BCF1010F32D887
:102470003A4BA8881B7813B900287FF472AF2C223E
:1024800000F01F0302FB0313BCF1010F93F8272098
:1024900002F0080417D1002C3FF4F9AD22F0080235
:1024A00083F827200B68002B3FF4F1ADC0B28DF804
:1024B000100007F0EBFE3B6804221B68002104A813
:1024C0009847044607E6002C96D00222264800963C
:1024D00000231146BDE70B68002B3FF442AF0322F7
:1024E0000821BEE70B68002B3FF43BAF1F4FB18ABA
:1024F00012F0800F28464FF0000218BF3D60984749
:10250000002304463B60E6E5B28A2AB90092022322
:102510002946FFF705FDD4E733690093B28A01230A
:10252000F6E7B37D33B1124B1B68CC2193F924003D
:10253000FEF7FAFE00210846FFF74CFDA7E50C4B1D
:102540001B68CB2193F92400FEF7EEFE9FE5084BB4
:10255000CA211B68F6E700BFC3FF00001C0AFF1F6B
:102560001E0AFF1FD0FF0000CEFF0000180AFF1F49
:10257000200AFF1F054B1B682C2202FB003090F83D
:102580002730194380F82710704700BF200AFF1F2B
:10259000034B1B682C2202FB003090F82800704788
:1025A000200AFF1F07F058BAF8B5032B9DF81870E2
:1025B0000E4614461D4630D1314B1B6803EB0717FE
:1025C000BD6811B312B900242046F8BD2F8AEB8AEA
:1025D000DB1B9A42F7DC5FB1A8682246314607F060
:1025E00055FAAB682344AB602B8A23442B82EBE77C
:1025F00006F076FF384607F00DFEA86006F078FF7B
:1026000007F0EEFD0028DED1E6E7288A2982A968D6
:1026100007F022FEAE600446D6E706F061FF072D04
:102620000FD0082D1ED0022D27D1154B1B6803EBB0
:102630000717BB689C68003C18BF012406F058FFD0
:10264000C2E70F4B1B6803EB07174FF6FF717B6860
:10265000013CA4B28C4203D11A681C8A3260EDE7B7
:102660009B69F5E7064B1B6803EB071720467D685F
:10267000002407F0D5FD2C82E0E70024DEE700BF50
:10268000E409FF1F2DE9F84F054601782748FEF7BA
:1026900057FD804648BB0146FEF752FD814620B3F8
:1026A000284607F0F9FB0646F8B909F1FF37FFB2F3
:1026B000DFF87CA03F01834607F0A8FDB0424FF051
:1026C000200015DC00F076FD034670B1184A106852
:1026D000C11900228B60C3E900229A60EA88DA827D
:1026E000124BC3512B780B73C8464046BDE8F88F98
:1026F00000F060FD04460028F7D0BBF1000F10D0B9
:10270000CBF81800304607F083FDC4E90100AB8820
:102710002060E38295F9083003B1A3770136A34620
:10272000CAE7DAF800303B445860EBE7A92500001F
:10273000E409FF1F08B56C2000F0BCFE18B9BDE825
:10274000084008F0DDBB08BDB7216120FEF7ECBDF5
:102750003C4AF8B513683C4E0133136033780133BB
:10276000DBB23B2B04460D46337025D9374F3B78FF
:102770000133DBB23B2B3B7012D9354A137801335E
:10278000DBB2172B37D81370A80607D563692BB1B6
:1027900006F0A6FE6369984706F0AAFE00233B7088
:1027A000A90707D563682BB106F09AFE63689847BE
:1027B00006F09EFE00233370EA0507D5A3682BB10F
:1027C00006F08EFEA368984706F092FEAB0507D58B
:1027D00023682BB106F084FE2368984706F088FE34
:1027E0002369002B2DD006F07BFE23699847BDE8B6
:1027F000F84006F07DBE17491748002313700A7889
:1028000003780132D2B20A700133DBB2062B16D83C
:102810001D2A037007D1114B1A78022A01BF012229
:102820000A7003221A702B07AED5E368002BABD0D9
:1028300006F056FEE368984706F05AFEA4E7073B09
:10284000E3E7F8BD2C0AFF1F2A0AFF1F290AFF1F12
:10285000280AFF1FF001FF1FF101FF1FF201FF1FF8
:102860000D4B1B78C3720D4B1B8883800C4B1B7860
:1028700083710C4B1B78C3710B4B1B7803720B4B92
:102880001B7843720A4B1B7883720A4B1B680361E7
:1028900080230373704700BF2A0AFF1FF401FF1F44
:1028A000F201FF1FF001FF1FF101FF1F280AFF1FA8
:1028B000290AFF1F2C0AFF1F2DE9F04308B94A4BD4
:1028C0001960DFF848C1DFF848E10A4640F2B37406
:1028D0000423651E15F00307AEB20ED1724516D95A
:1028E000A2F1F172A2F505420233DBB2062B02D847
:1028F0000134A4B2EDE7073BF7E7624507D9A2EB45
:102900000C020133DBB2062BF2D9073BFAE7DFF802
:1029100004E1DFF8D880DFF80091002467B9012CCA
:102920000AD14A451BD9A2F51812A2F56E521D33E1
:10293000DBB2062B0FD802241EF8045008FB05FC5E
:1029400094450CD2A2EB0C022B44DBB2062B04D82C
:102950000134E4B2E2E7073BEAE7073BF5E701347D
:10296000224FE4B20125BA420BD9A2F5A8320135B3
:10297000A2F5C072EDB20133DBB2062BF3D9073BEF
:10298000FAE70027B2F5616F5FFA87FC07F10107EC
:1029900002D3A2F56162F5E700273B2A5FFA87FEC2
:1029A00007F1010701D93C3AF7E7D2B258B1847177
:1029B000C5710372C27280F80AE080F809C086808F
:1029C0000161BDE8F0830A490C700A490D700A499B
:1029D0000B700A4B1A700A4B83F800E0094B83F81E
:1029E00000C0094B1E80ECE72C0AFF1F805101003C
:1029F000F201FF1FF001FF1FF101FF1F2A0AFF1F55
:102A0000290AFF1F280AFF1FF401FF1F8033E1017D
:102A10000085E201E3FF0000803B26002DE9F04342
:102A200087B005460C461422002101A807F02CF9B6
:102A3000042D36D10B238DF810302CB90020001B4B
:102A4000C0B207B0BDE8F08301A808F071F9059B9A
:102A500013B315F006062DD1204615F0050FEED064
:102A600016B1202300F8013B024640219DF80D00DD
:102A7000FEF788FC02463A2502F8015B40219DF8EA
:102A80000E00FEF77FFC0246402102F8015B9DF834
:102A90000F00FEF777FCD2E758492046FEF78FFD7E
:102AA000CDE701A8FFF7DCFE15F007071AD0002CD0
:102AB000CFD1C3E722469DF80B000021FEF762FC50
:102AC00002462E2702F8017B40219DF80A00FEF7FE
:102AD00059FC0246002102F8017BBDF80800FEF710
:102AE00051FCBAE7002C64D0102D4FF03C084CD1BB
:102AF00023782B2B06D1631C1C4613F8012B202AAC
:102B0000FAD001272046FEF719FD23465FFA80F927
:102B10001C4613F8016BA6F13002092AF8D96EB1F0
:102B200018461C46FEF70AFDC6B22046044610F8B9
:102B3000013B303B092BF9D907B10137207830B17F
:102B400001342046FEF7FAFC80B207B10137102DA0
:102B50000DD1234614F8012BA2F130010929F8D92F
:102B6000202A16D15B78303B092B98BF3025AB0665
:102B700011D5B0F5FA6F8DF80B908DF80A6001D27F
:102B800000F5FA60ADF8080011E0302D08BF1025FF
:102B9000B8E71C46EBE7032F21D8DFE807F0021760
:102BA0001B258DF80D908DF80E608DF80F00302DDF
:102BB000EBD0102D05BF124B01930123062301A872
:102BC0008DF8103008F0B4F800203AE70598484432
:102BD000059004E0059808FB090006440596059950
:102BE00001A8FFF769FEE2E7059B4FF4616202FB73
:102BF000093318FB063656FA80F0E9E7D2FF0000E9
:102C0000492700002DE9F043B0F804C0364D0423F5
:102C100040F2B2740022A44504F0030742D884793C
:102C2000DFF8E8E0DFF8E880651EEDB2002D4CD15A
:102C30004FB9022C07D902F5A83202F5C072013350
:102C4000DBB2062B4CD8C7797D1E5FFA85F853FAA4
:102C500085F3DBB2062B45D890F809E0867AC57A71
:102C60004FF4616000FB0EF93C2010FB0690DFF88A
:102C7000A090284409FB0800104489B11B4AA2F81F
:102C800000C01B4A14701B4A17701B4A82F800E0F0
:102C90001A4A16701A4A15701A4A13701A4B18609D
:102CA000BDE8F08301344FB902F1F17202F505423B
:102CB0000233DBB2062BAED9073BFAE72A440133D5
:102CC000DBB2062BA7D9073BFAE7013D15F80E60EA
:102CD00008FB06223344DBB2062BA7D9073BFAE7F1
:102CE000073BADE7073BB4E78033E101F401FF1F89
:102CF000F201FF1FF001FF1F280AFF1F290AFF1F13
:102D00002A0AFF1FF101FF1F2C0AFF1FE3FF00002B
:102D10008051010010B586B042230190044601A8FD
:102D20008DF8103008F004F80128024605D1044B54
:102D300014216B201C6000F019FC06B010BD00BF10
:102D4000240AFF1F30B50B4D847B89B005226946EC
:102D50002046FEF7EFF808B909B030BD9DF8033002
:102D6000002BF3D19DF80430012BEFD12868FFF739
:102D7000D1FFEBE7240AFF1FF8B51D4B02461D6883
:102D80001C4B00211424B5FBF4F4B5FBF3F52846E5
:102D9000FEF7F8FA44222023427061220370827009
:102DA00043717922144BC270732203FB15440271E4
:102DB0004FF46166821DB4FBF6F500212846FEF74C
:102DC000E1FA02463A2706FB154402F8017B3C264D
:102DD0004021B4FBF6F52846FEF7D4FA024640211E
:102DE00002F8017B06FB1540BDE8F840FEF7CABAC1
:102DF000540AFF1F005E1A00805101002DE9F041C6
:102E0000054601200E46174607F0D9FE044638B99C
:102E100007F0D5FE041E08BF412484F00304E4B289
:102E20002B0442BF64F07F04E4B284F003043B4609
:102E30003246C5F30E012046BDE8F04107F003BF5E
:102E400037B51346020404464ABFC0F30E040120FE
:102E500000200D46019307F0B2FE38B1019B2A46CF
:102E6000214603B0BDE8304007F0D3BE4FF0FF303D
:102E700003B030BD022810B50AD0032816D00128AF
:102E800016D107F09CFE98B100231A46012109E0F3
:102E9000002007F094FE58B1002360F07F001A462E
:102EA0001946C0B2BDE8104007F0CDBE0020E8E7EB
:102EB0004FF0FF3010BD402802D83038C0B2704704
:102EC000602894BF37383D38F8E708B50078FFF739
:102ED000F2FF5C2828BF5C20000300F5103008BD1D
:102EE00013B504220DEB0201044607F063FE019BBB
:102EF0005BB15A1C0CD0C4F5002404F6FB74A34249
:102F000088BF0194019802B010BD4FF48050FAE7D9
:102F10000020F8E7F8B50D461646044680B1FFF7E5
:102F2000DFFF043020F47F6020F00F0000F58050B8
:102F300004440C4FBC4206D900242C602046F8BD46
:102F40004FF41034F5E72046FFF7CAFF286028B198
:102F500001223146201D07F02DFEEFE704F58054D5
:102F6000E8E700BFFE0F080008B507F0BFFD003816
:102F700018BF0120404208BD2DE9F74F484E0F46CB
:102F8000D6F800901446002A56D0DFF82081B9F117
:102F9000000F55D100F1050A0822FF214148C8F869
:102FA00000A006F071FE0DF1030201A94846FFF7EB
:102FB000B1FF0546F0B1DFF8F8B041F2040901991C
:102FC000494401EA0B015545019109D86B189A450E
:102FD00006D22846FFF7C8FF019BA3420AD29A44B3
:102FE00028460DF1030201A9FFF794FF054608B139
:102FF0008245E4D23368022B0FD8C3F10305A54202
:10300000294828BF2546394618442A4606F03EFD81
:1030100033682B4433602F44641B04B957B9D8F884
:103020000000336822463946184407F07BFD3268B9
:1030300022443260D6F80090484603B0BDE8F08FD5
:10304000D8F80020A2F510354D44C5F30F33013DEB
:103050002544C5F30F355C2D05D95C2BECD84A44CB
:10306000C2F501245C25AB42C4D003F101094FEA4B
:10307000093A0AF5103ABAF5012FBBD25046FFF7CC
:103080002FFF50B10AEB0003B3F5012F28BFCAF59B
:103090000120011D5046FFF767FF1FFA89F3E2E7A1
:1030A000340AFF1F380AFF1F3D0AFF1F300AFF1FA7
:1030B00000F0FFFFF7B506460D4601921F46FFF7E9
:1030C0000FFF044650B1441B019907D0BC4228BFF2
:1030D0003C4605352246701907F06CFD204603B0CA
:1030E000F0BD000037B5134D2B6801930446F3B1D2
:1030F000114A09781171022B4FF000022A6002D99F
:10310000114607F00FFD04220DEB02010A4806F0FC
:10311000BDFC09490822204607F004FD00221146A3
:10312000204607F0FFFC08B100230193019B1846DD
:1031300003B030BD340AFF1F380AFF1FA0F510335B
:103140000130B0F5103F4FEA13338CBF1846002012
:10315000C0B2092802D83030C0B27047232894BFCB
:1031600037303D30F8E7000013B50E4B00221A80CF
:103170000D4B0E4A19600E4B147819600278A2426A
:1031800009D142881144196055220DF10703994273
:1031900005D902B010BD002AFBD00430EEE701F8DB
:1031A000012BF4E7400AFF1F440AFF1F4602FF1FDE
:1031B000480AFF1FF8B50E4F0E4E3C6833880E4A82
:1031C0001C44A3071CBF24F0030404341268231812
:1031D0009A4205460AD902460021204606F054FDCF
:1031E0003A68A21A154435802046F8BD0024FBE752
:1031F000440AFF1F400AFF1F480AFF1FF8B50F4F80
:103200000F4E3C6833880F4A1C444B1E1C421EBFA5
:103210004B421C406418126823189A4205460AD98A
:1032200002460021204606F02FFD3A68A21A1544F6
:1032300035802046F8BD0024FBE700BF440AFF1F8D
:10324000400AFF1F480AFF1F084B10B51C680146C3
:1032500023461A1B90B213F8012F552AF9D0044ABD
:10326000002818BF2346D21A0A8010BD480AFF1F43
:10327000FCFF0220034B1868034B1B68C01A80B286
:10328000704700BF480AFF1F440AFF1F044B18681D
:10329000044B1B68C01A044B1B88C01A80B27047CD
:1032A000480AFF1F440AFF1F400AFF1F2DE9F74F7E
:1032B000DFF87091DFF8708101920023C9F80030C7
:1032C000C8F80030554B93F90030824691F9004020
:1032D000F4B1A3424BD10D466C1A15F9016FE4B25B
:1032E000002EF9D104EB840080000430FFF762FF68
:1032F0006FEA040CAC44C8F80000024635461CF9DD
:1033000001BFBBF1000F30D1C2F800B0002835D1A9
:10331000002006F0CDF8424B00221A6006F084FB34
:10332000204603B0BDE8F08F1031D1F800E0BEF1C7
:10333000000FE4D09EF800305B45F5D14B68C2E940
:1033400000E30B8913810BB10136F6B2B1F80AE044
:103350008B899381A2F80AE05EEA0303897BD1732B
:103360001CBF0135EDB21432C9E75146DDE70A460C
:1033700011F9010F0028FAD1911CA7E7EDB105EB77
:1033800045008000043080B2FFF714FFD8F8002019
:10339000C9F800005946DC464FF0010E4FF6FF7A9F
:1033A000136813BB09B1C9F80000D9F8003005EB68
:1033B0004505A3EB8505C9F80050019B3344D8B2FD
:1033C000FDF792FD002EA3D0D8F80050FF262B6801
:1033D000002B9DD02B8933B12A4601210320FDF714
:1033E00023FFC8B1A8731435F1E753893BB15345A6
:1033F00008BFA2F80AC053894360012302E0938901
:10340000002BF9D147680FB180F809E013B140F8FB
:103410000C2B01211432C3E7AE73E4E74602FF1F11
:10342000540AFF1F500AFF1F4C0AFF1F06F04EB838
:103430001F4B73B51C680025143454F8143CA4F1D8
:1034400014060BB902B070BD14F8053C13F00D0F53
:103450002CD006F045F834F8083C1BB914F8053CAC
:10346000DB071DD414F8043C9BB18DF800508DF897
:10347000015054F8142C12788DF802206946052268
:1034800000208DF803508DF80430FDF72BFF04F871
:10349000045C14F8053C13F00A0308BF04F8053C6B
:1034A00006F026F854F8103C304698471434C4E728
:1034B0004C0AFF1F38B50C4B1C68054606F010F887
:1034C00004F1140252F8140C50B112F8051C11F05A
:1034D0000D0F06D00378AB4203D006F009F80120A7
:1034E00038BD1432EEE700BF4C0AFF1F064B1B68C5
:1034F0001A680AB9802070471278824201D1D87BBD
:1035000070471433F4E700BF4C0AFF1F38B5144B63
:103510001C6823680BB31B7883421FD1C1B9114BC0
:103520001D6815B9E17318E00C352B68002BF9D034
:10353000A342F9D105F0D4FFA3891BB10A4A12684E
:1035400013446B600023E373BDE8384005F0D0BF3F
:103550004A07E7D5E37B1B07E4D538BD1434D8E729
:103560004C0AFF1F500AFF1F540AFF1FF8B5174BE4
:103570001C680E46174644B1154B1D682B6823B1D5
:103580001B7883421FD1236803B9F8BDAB4218D121
:1035900005F0A6FFEB7B23F00203EB73277237B92C
:1035A000AE8126B96672BDE8F84005F0A1BF094BAF
:1035B0001B68012E2CBF9B190133636001236372CA
:1035C000F1E70C34DFE71435D8E700BF500AFF1FDE
:1035D0004C0AFF1F540AFF1F38B50F4B1D6845B139
:1035E0000E4B1C68236823B11B78834212D12B68D1
:1035F00003B938BDA3420BD105F072FF00232B8124
:10360000E37B43F00203E373BDE8384005F070BF8D
:103610000C35ECE71434E5E7500AFF1F4C0AFF1F96
:103620001449154B0A681B68013230B50A6023B192
:103630000C33042553F80C2C02B930BD13F8030CDD
:1036400098B153F8080C0C68A0420ED1D47B14F04A
:10365000020F05D1240758BFD57313F8044C147416
:10366000928922B1024443F8082C0C33E2E703F8B4
:10367000032CFAE7540AFF1F500AFF1F10B50389F5
:103680000446D3B103681A7B082A16D15B7B062B4C
:103690000FD0204602F020FE78B12368DB7D062B98
:1036A00011D0112B0BD0012B07D1204602F056FD73
:1036B00003E000F073FB0028EBD0002010BD204693
:1036C00005F0FEF9F9E7204604F06AFAF5E7000094
:1036D000F0B5214D2C7887B02CBB08F015F81F49A8
:1036E0008DF8044045234A788DF80C300B780DF1A5
:1036F0000D0043EA022302310622ADF8063006F03F
:10370000C5F940F2EA53ADF80830ADF80A3001AA25
:103710000C23032104208DF81330ADF81440FDF77D
:1037200083FD2870A8B10E4F042601A9384606F083
:10373000F3FA041E0DDB297801A8FFF79FFF287814
:103740002146FDF731FC013EEFD104214520FFF772
:10375000DDFE07B0F0BD00BFA00AFF1F440DFF1F34
:103760001D00010038B5054614480C46FDF704FE5F
:1037700000212846FDF776FE1148FDF7FDFD114BAF
:10378000FB2C5C5504D11048BDE83840FDF7F4BD72
:103790000E48FDF7F1FDFD2C09D90D48FDF7ECFDB4
:1037A000FF2C08D10B48FDF7E7FD0B48ECE704F0D0
:1037B000FD04FD2CF5E70948F5E700BFEFFF000029
:1037C000F3FF0000A10AFF1FFAFF00000100010043
:1037D00037FF000007000100130001000D00010089
:1037E00012220D4B02FB010210B553F822400B28A8
:1037F00004F1010443F8224005D8482251435A58A5
:1038000001325A5010BD1028FCD8482202FB013367
:103810001A6B01321A63F5E7580AFF1F11289FBF80
:10382000122303FB0100034B53F8200088BF002044
:10383000704700BF580AFF1F06280BD011280CD074
:1038400001280CD0074B482202FB01310B6B0133DE
:103850000B6370471020FFF7C3BF0F20FBE70E205C
:10386000F9E700BF580AFF1F20F0C002062A0346EE
:103870000ED0112A13D0012A13D00B4B48225143EA
:103880005818C2690132C2615A5801325A50704701
:1038900005201B0644BF0630C0B2FFF7A1BF0420BD
:1038A000F7E70320F5E700BF580AFF1F034B482244
:1038B000002102FB003006F0E7B900BF580AFF1FE5
:1038C0002DE9F04786B090460E9C94F90220002A1C
:1038D00099460746A37801DA002058E013F0780FE4
:1038E000FAD12379002BF7D16379012BF4D1237B13
:1038F000202BF1D12A492B480422FDF73EFE002857
:10390000EAD002AA04F10F0504F12F00924615F83F
:10391000023CA3F1410115F8013C0235413B43EA69
:103920000113A84202F8013BF1D11F4B5046196820
:1039300002F037FE06461AF806505DBB8523A370D9
:1039400001231A49E3710422E5706571A57104F140
:10395000320006F09BF80623124984F8373004221F
:1039600084F8365084F8395084F8385004F13A001D
:1039700006F08CF83E2300930195A4F108034A4613
:103980004146384605F0FAF8003818BF012006B065
:10399000BDE8F087202D9FD101360F2ECBDD9BE7B0
:1039A000D60701004C0DFF1FA40AFF1F1E000100D7
:1039B00038B50949094D04460322102005F03AF8AC
:1039C0000028287004DB064B89211C6005F062F892
:1039D00095F9000038BD00BFC1380000F601FF1F97
:1039E000A40AFF1F30B5094A411E0330814201D1AC
:1039F000012030BD157911F8013F14782B40634048
:103A00001D4202F10102F1D00020F2E74C0DFF1F30
:103A1000124B1B6830B501460F22A3F10F04981812
:103A20000F32A55C0DB9017008E0782AF7D103F1D7
:103A300069020020934202D10028F4D130BD13F86E
:103A40000F4F14F0450FF5D128B11D790479A54227
:103A500038BF1846EEE71846ECE700BFA80AFF1F7C
:103A600013B543788DF80230002441238DF80510FA
:103A70000122811C0DF106008DF803308DF8014004
:103A80008DF8004006F002F802230722694620461E
:103A90008DF80430FDF726FC02B010BD70B506228B
:103AA0000D460968044605F0F1FF06221B49A018DF
:103AB00005F0ECFF06260823237319496673324686
:103AC00004F10E0005F0E2FF1449324604F116003D
:103AD00005F0DCFF1349042204F11C0005F0D6FFB9
:103AE0006968324604F1200005F0D0FFA9680E4D48
:103AF000042204F1260005F0C9FF28782A22214675
:103B0000FDF7F0FB20B1002228781146FDF7EAFB13
:103B1000BDE8704000210D20FFF762BE460DFF1F7B
:103B2000220001004C0DFF1FA00AFF1F00B58FB03F
:103B300000238DF8203001238DF821300B30064B07
:103B400001930290054B0093694603A8FFF7A6FF77
:103B50000FB05DF804FB00BFD6070100D0070100DD
:103B6000F7B5164601911D46FFF752FF0446F0B126
:103B7000019904220B3005F089FF0E490622601DD1
:103B800005F084FF02270423E37020462771FFF726
:103B9000CDFF2378667043F040033A460A21412066
:103BA000A570237003B0BDE8F040FFF7DFBC03B0A1
:103BB000F0BD00BFD00701002DE9F04F424D867BDC
:103BC0002B6891B063BB7820FFF7F4FA89233F4953
:103BD0002860042200F80B3B05F058FF28683B4999
:103BE0000622053005F052FF01224FF4966114E0E1
:103BF0009DF80330A3B99DF80420012A3FD12C6819
:103C00004FF0020804F1690799464FF0410ABC429F
:103C100010D1002BE8D002220A214120FFF7A6FC98
:103C2000052269463046FDF785F90028E0D111B03C
:103C3000BDE8F08F94F90F20E17B002A04F10F0B0F
:103C400009DAE27C3AB1013AD2B2E2741AB911F05F
:103C5000010102D1E1735C46D9E7A27C62B1013A6D
:103C6000D2B2A27442B15846FFF760FF84F80FA0A9
:103C7000012384F81380EEE784F80F90F9E7022A15
:103C8000CED12A681C4602F16907BA4202D1002C43
:103C9000C1D1A9E7D37B5B0602F10F0807D5937C5E
:103CA0003BB1013B93744046FFF740FF012442467D
:103CB000EBE7D37392F91030002BF8D00321404684
:103CC000FFF7CEFEF3E700BFA80AFF1FD0070100F1
:103CD0002DE9F0412E4B15781C6806460F4604F17D
:103CE000690844451ED13046FFF77CFE00284AD0C3
:103CF000284904223046FDF740FC38B926492548BA
:103D00000422FDF73AFC00283DD001252846FFF7A4
:103D10007FFE0446002836D0042231460B3005F0E1
:103D2000B5FE1DE014F80F3F002BDAD00422314617
:103D300004F10B00FDF721FC0028D2D115F0040698
:103D400021D123785A0607D594F9013023B10421F3
:103D50002046FFF785FE6670237803F03F0323704B
:103D600006223946601D05F091FE6B070DD415F053
:103D7000010F14BF0523142323710423E370237858
:103D800063F07F032370BDE8F0810023F4E700BFF8
:103D9000A80AFF1F540DFF1FD60701002DE9F041AF
:103DA0000468277B082F90B00BD103891B2B08D9FF
:103DB000A38A5BBA9BB2012B04F1160603D0022B37
:103DC00026D0002021E04FF0020838488DF804800A
:103DD000042204F12601FDF7D0FB002863D11C3436
:103DE0008DF8280002A905A8CDE902668DF8298082
:103DF0000494FFF753FE01AA31462046FFF768FFFF
:103E000000210220FFF7ECFC012010B0BDE8F0819A
:103E100026488DF81430042204F1260104F11C0711
:103E2000FDF7ABFB002833D1214B1C6804F1690876
:103E3000A045E5D014F80F3F002BF9D0042204F17F
:103E40000B013846FDF799FB05460028F0D1062204
:103E50003146601D05F01AFE23785A0704D413F08A
:103E6000010F14BF0525142504215B062571E1709F
:103E700007D594F9013023B12046FFF7F1FD002367
:103E80006370237803F03F0363F07F032370B7E789
:103E9000084904223846FDF770FB20B105AA3146D7
:103EA0003846FFF715FF00210820ABE74C0DFF1F38
:103EB000A80AFF1FD00701002DE9F0479046304ABD
:103EC000DFF8C8900F460423111FD9F800400546BB
:103ED00002F0ECF930BB04F10B0604F1830A5645FD
:103EE000A6F10B0410D12846FFF77CFD042238B35D
:103EF00024492846FDF741FBC8B1022043463A4613
:103F00002946FFF72DFE0CE016F80B3C6BB104229E
:103F100029463046FDF731FB38B994F90030002BC3
:103F200000DB00242046BDE8F0870F36D7E71649AE
:103F300014480422FDF721FB0028DED00120DDE734
:103F400011491048FDF719FB0028EAD0D9F80040C4
:103F50000C4E04F16905AC4204D10A4943463A4685
:103F60000120CEE714F80F3F002BF4D00422314695
:103F700004F10B00FDF701FB0028ECD1CDE700BFF9
:103F8000500DFF1F540DFF1FD6070100A80AFF1F89
:103F9000094B30B500221C680F23E556002D04EBB9
:103FA000030103DA0132D2B2824203D00F33782BFD
:103FB000F3D10021084630BDA80AFF1F054B1B683E
:103FC000002203F169018B4200D17047DA731A7441
:103FD0000F33F8E7A80AFF1F10B501680A4612F868
:103FE000013B5C1C214401600020013BDBB2FF2B44
:103FF00000D110BD12F8011B41EA0020F5E702468E
:10400000084611680B7801330B4413600131042218
:1040100005F03CBD10B51248124B04781B681249DC
:1040200014F0020F04D00A6812B10A329A4203D384
:104030009B0803EB43030B6014F0010F0B680B4A62
:1040400005D0116819B1A3F10A04A14204D30321D8
:10405000B3FBF1F35B0013600023037010BD00BFDE
:10406000B90AFF1FC00AFF1FC40AFF1FC80AFF1FAB
:1040700037B505460191FFF7D9F941F6D2218842BB
:1040800088BF283D40F24714B0FBF4F4A3B28CBFC4
:1040900013FA85F35B19019A99B2442003B0BDE885
:1040A0003040FFF763BA000007B50D4A8DF80500F0
:1040B00012788DF80220452200238DF80320022279
:1040C0008DF804206946072218468DF801308DF8D6
:1040D00000308DF80630FDF705F903B05DF804FBFC
:1040E000AE0AFF1F08B5104B0928196818D00A2816
:1040F00014BF02460B2291B140F6CB40814297BFDC
:1041000001EB8101A1F6CC400020890018608CBF32
:104110004FF6FF7189B24420FFF728FA002008BD4E
:104120004A1CFBD00822E6E7C80AFF1FF0B5D1B051
:104130004FF496720021054605A805F0A5FD4C49EF
:104140004C4C4D4E0C2205A805F0A0FCFFF76EF973
:104150002070FFF76BF96070FFF768F9A070FFF748
:1041600065F90422E070214606A805F08FFC33783B
:1041700013F0E00F04D04149042208A805F086FCA2
:104180003F4906220CA805F081FC3E49062240A8C2
:1041900005F07CFC012D8DF8065159D0EB1E012B4A
:1041A0005FD8337813F0C00F4FD132230422364941
:1041B0008DF807310DF209108DF8082105F066FC25
:1041C0000DF20D14337813F0C50F08D136230422F5
:1041D00023706270A01C2D4905F058FC0634042D94
:1041E00038D100210DF10B0007F050FA014690B1D3
:1041F0009DF80B207AB1D31C234450A898420AD9C9
:1042000027460C2307F8023B6270384605F03EFC57
:104210009DF80B403C44FF2323701D4B93F9000095
:104220003378442213F0600F4FF49673CDE90032D7
:1042300003AB4FF0430217D0144904F09FFC013048
:1042400001D1144B1D7051B0F0BD0DF20714B9E748
:104250000DF2071420461049082205F017FC083417
:10426000BFE70DF20714BCE70C4904F087FCEAE74E
:1042700030000100BA0AFF1FB70AFF1F4C0DFF1FD5
:10428000460DFF1F3C000100AF0AFF1FB30AFF1FCE
:10429000F701FF1FB80AFF1F28000100D007010027
:1042A00010B5094C4420FFF797F90849042220462D
:1042B00005F0ECFBFFF782FE20460022BDE810402F
:1042C0004421FFF7F9BD00BF4C0DFF1FAF0AFF1FD0
:1042D00038B56E4D2B78102B04461FD00BD8013B00
:1042E000DAB2072A0ED8072B0CD8DFE803F00C5AF5
:1042F0000B110B0B0B5F402B74D0802B00F0A380B5
:10430000202B59D038BD04232B70614B50221A80CA
:10431000062C03D1BDE83840FFF7C2BF072C07D0F9
:10432000042C12D12046FFF701FF0220FFF7BCFE4C
:104330000223002157482B70042205F0A5FCBDE89C
:1043400038400121DC20FFF793BE052C15D1FFF783
:1043500061FE51495148202302682B700B68D21A24
:1043600002604F4A12689B1A0B600920FFF7BAFEE1
:104370000120BDE83840FFF797BE0320444CFFF70B
:10438000D5FE03212088FFF773FE23885B009BB2D4
:10439000B3F5A06F2380B5D93D4B50221A8004207D
:1043A000E7E708232B703A4B50221A800120FFF7D1
:1043B000BDFE374C0221E5E7FFF794FE0028A1D0AF
:1043C000082C9FD1402303202B70FFF7AFFE324A09
:1043D00013685B081360324A1360BDE83840092057
:1043E000FFF780BE08281CD1FFF77CFE002889D08B
:1043F000294A13685B081360294A3B2B136008D8CD
:10440000264980232B700B685B080B6013600A2021
:1044100000E00920FFF766FEBDE838400320FFF703
:1044200085BE06287FF46EAF20232B70FFF7F2FDC8
:1044300019491A480B680268D21A0260184A1268B1
:104440009B1A0B60C9E70B2819D1FFF74BFE002818
:104450003FF458AF114A13685B081360104A3B2BB6
:104460001360D4D80223042200210A482B7005F0DF
:104470000BFCDC200121FFF7FBFD032079E7062878
:104480007FF440AF10232B7044E700BFB70AFF1F33
:10449000AC0AFF1F4C0DFF1FC40AFF1FC00AFF1FFD
:1044A000C80AFF1F2DE9FF47A24B0C9D93F900306E
:1044B0008342174640F09A819F4B93F90030002BBE
:1044C00012DB012940F09581BDF83430E32B40F236
:1044D00092812B78022B40F08E8104229749A818F4
:1044E000FDF74BF8014610B16FF008044EE00422CE
:1044F000924805F0C9FB042205F110010DEB020002
:1045000005F0C4FA042205F1180102A805F0BEFA6C
:104510008B49062205F11C00FDF72FF80028E3D196
:104520008849042205F1EC00FDF727F8044600282D
:1045300040F05981844E3378102B05F1F00533D0CB
:1045400033780395102B1AD1804E814D814F0399FA
:104550000B78FF2B1AD04B1C03930B783B2B0AD8FC
:10456000322B00F28C80012B00F0A280032B00F094
:10457000A480002BEBD003A8FFF72EFDE7E709D8B6
:10458000042B0BD0082B71D06FF00604204604B02A
:10459000BDE8F087402B01D0802BF5D16B4F6C4EDE
:1045A000DFF8B0810025E8E004226B490DEB020042
:1045B000FCF7E3FF002897D1684804223946FCF74E
:1045C000DCFF0028BCD00422394602A8FCF7D5FF46
:1045D0000028B5D088E74B1C03930B78332B39D0D8
:1045E00008D8012B3BD0032B3ED0B3B103A8FFF773
:1045F000F3FC12E0352B0DD0362BF7D1023104221B
:104600004046039105F042FA039B043303934FF0B5
:10461000010A02E0CB1C03938D7803990B78FF2BE2
:10462000D9D1BAF1000F00F0DB80022D40F0D88024
:104630001023042233700DEB0201474805F026FADF
:104640000320FFF773FD464B502018800321FFF72E
:104650000FFD9BE703A8FFF7BFFC3860DDE7494685
:1046600003A8FFF7CCFCD8E73E49F9E74FF0000A72
:104670003D4FDFF8E880DFF8F4905546CDE7333B57
:10468000082B3FF678AF01A252F823F0D346000082
:1046900077450000DF460000BF4600007745000078
:1046A0007745000077450000F14600000347000011
:1046B0002E4903A8FFF7A3FC49E72A49F9E702318D
:1046C00026480391042205F0E1F9039B0433039388
:1046D0003DE703A8FFF780FC234B186037E7CB1CAE
:1046E00003938B78052B40F08680FFF7D9FD2EE7EA
:1046F00003A8FFF771FC2B78386043F001032B709F
:1047000025E703A8FFF768FC2B78306043F002032D
:10471000F5E75A1C03921A787AB3333AD1B20829D2
:104720005AD8082A58D8DFE802F02357335757578A
:1047300057454F00F801FF1FF701FF1FBA0AFF1F7F
:10474000460DFF1F3C000100B70AFF1FC40AFF1FF0
:10475000B90AFF1FC80AFF1FAF0AFF1FB30AFF1FD6
:10476000AC0AFF1F540DFF1FC00AFF1F500DFF1F93
:1047700003A8FFF731FC214B1860039B1A78FF2A2E
:10478000C7D1002D3FF402AF0620FFF7A1FDFDE6E3
:104790009A1C03929A78062A05D10720FFF798FD04
:1047A0004FF0FF34F2E6052A03F1030308BF0125A9
:1047B0000393E2E703A8FFF70FFC3378C8F8000083
:1047C00043F001033370D8E703A8FFF705FC337803
:1047D000386043F00203F5E703A8FFF7FDFBCCE7E1
:1047E0006FF00304D2E66FF00904CFE66FF0070420
:1047F000CCE60024CAE66FF00504C7E6C00AFF1F36
:1048000030B5164D847B8BB0052269462046FCF7F7
:1048100091FB08B90BB030BD9DF803309DF8042022
:10482000412B16D169462046FCF784FB9DF80030E9
:10483000042B0AD1287820B1FFF778FC00232B70D5
:10484000E2E71846FFF744FDF8E7032BF6D1052011
:10485000F8E71046FFF73CFDD6E700BFB80AFF1F98
:1048600010B504464420FEF7B7FE064B0649002269
:104870001A55064B182000FB04300422BDE81040F6
:1048800005F004B9B70AFF1FAF0AFF1F4C0DFF1F49
:1048900070B51E4E96F90030002B05460C460ADA1C
:1048A0001B490322102004F0C5F80028307029DBD2
:1048B000442104F0EFF83178164B24F03F040C4308
:1048C0001C70154B154C05F07F02002D1A7017DB7C
:1048D000134914480422FCF750FE88B111491248CC
:1048E000042205F0D3F801232370042200210D488F
:1048F00005F0CAF950200121FFF7BAFB002070BD76
:104900000223F1E76FF00100F9E700BFF801FF1F94
:10491000A5440000F701FF1FAE0AFF1FB70AFF1FE3
:10492000D60701004C0DFF1FAF0AFF1F2DE9F04F06
:104930000C46ADF2E45D08B90026F4E0022891F9D6
:1049400000504BD846D1887F0A381F28F4D801A3DD
:1049500053F820F06F4C0000E9490000EF490000D7
:10496000014A0000074A00000D4A0000134A0000F7
:10497000194A00001D4A0000214A0000254A000093
:10498000594B0000A54A0000A94A00002F4A000028
:104990002B4A0000394900005F4B000039490000F4
:1049A00039490000394900003949000039490000FF
:1049B00039490000394900003949000039490000EF
:1049C000394900003949000039490000674B0000AF
:1049D000CB4A0000087E94F90150B5E7272801D999
:1049E0000876F8E78877AFE7A249092401E0A249F1
:1049F000112422460BA805F049F80823224648E076
:104A00009E490D24F5E79E490E24F2E79D490B24AB
:104A1000EFE79D491324ECE79C49F2E79C49E4E762
:104A20009C49E2E79C491224E3E79C49F2E70BAE7C
:104A30000F229B49DFF89892304605F027F84FF097
:104A400000080DF13B022C2719F8010B0021FCF79F
:104A500099FC08F101080246B8F1040F02F8017B45
:104A6000F2D1E08A0021000AFCF78CFC024600210A
:104A700002F8017BA07DFCF785FC292303702E231F
:104A800043700D2383700A23C3700430821B0823F4
:104A900092B206A9284602F0BAFC0028D4BF00262C
:104AA000012640E07F49ACE70BAE7F490422304647
:104AB00004F0ECFF60680CAA0021FCF763FC0D23F6
:104AC00003700A2343700230E0E7284602F048FCF6
:104AD000438C40F2B4529342074606D840F2D922A2
:104AE000934203D84FF0FF361DE013460BAA6168CE
:104AF000E068FEF7DFFA82B22282002A3FF41CAFA0
:104B0000082306A9284602F082FC061E0BDD218A36
:104B1000FB8C0B44FB847B8C5B1A9BB240F2B4523F
:104B2000934205D82BB930460DF2E45DBDE8F08F15
:104B3000134660680BAA0144E068FEF7BBFA82B234
:104B4000002AF0D0238A1344238206A9082328468A
:104B500002F05DFC0646E6E754490C2449E70423CD
:104B60005349237741E75349072204A804F08EFFF5
:104B70000DF10B0203A90020FEF7CCF900238146BA
:104B80009B4698460BAE039A2AB9A3B1A28A6282C9
:104B90001344A3820FE0A28A03F1010A93425FFA51
:104BA0008AFA52D308F284539B450AD90AF1FF3A94
:104BB0006282A4F814A0BBF1000F4FD008235A461C
:104BC00067E73D490A22304604F060FF3B490B226B
:104BD00006F10A0004F05AFF06F1150200210398BD
:104BE0000192FCF7CFFB019A3549821A08F10808B7
:104BF000A8EB02080C22074604F048FF9DF80B20A2
:104C000030490A2A84BF0A228DF80B209DF80B0038
:104C100007F10C0351F82010019303220DF112004B
:104C200004F034FF4846FEF789FA019B8DF8100026
:104C30001337072204A91846BE1B04F027FFB3440C
:104C40000FFA88F81FFA8BFB3E4648460DF10B021F
:104C500003A9FEF75FF95346814694E7A38A002B28
:104C60007FF46AAE0123A38217490A24C1E61749DB
:104C70001A24BEE66D010100EC0001008301010071
:104C8000A4000100770101002D010100C100010015
:104C9000CF000100FE000100D90001004E0101001B
:104CA000B2010100B3000100C10101004101010096
:104CB00023010100420001009D010100A701010044
:104CC000910101004802FF1F62010100080101007B
:104CD0004C0DFF1F38B58D7F0C461DB9FFF726FE22
:104CE000E57738BDC877FCE738B50146044629208A
:104CF000FFF71CFE054618B107236377002038BD77
:104D000021460B20FFF7E6FF94F90100657702F0DA
:104D1000E7FE0820F3E7000073B55A4C0D46114634
:104D20001A4694F901308342064608D094F921309E
:104D3000834203D00225284602B070BD203494F986
:104D40000000023DCDE9001202F05AFBDDE900123D
:104D5000062D2ED8DFE805F00442708C55809000B7
:104D6000A27E02F0FB03D207A37619D543F002031B
:104D7000A376637F012B18D100236382A38221468F
:104D80002820FFF7D3FD054698B921460B20FFF7F1
:104D9000A1FF657794F9010002F0A2FE0825CAE799
:104DA00021460F20FFF796FFE3E7022B03D10323F1
:104DB00063770025BFE7062B0BD121460F20FFF7B5
:104DC000B5FD00282046D4BF00250125FFF78CFF44
:104DD000B1E7A37E43F00403A376EAE7637F012BE8
:104DE000CDD0072BE5D1284B1B680022DA846368FD
:104DF000228A20461344636002B0BDE87040FFF78A
:104E000073BF637F032B0DD104F11B01E068FEF734
:104E100069F921460B20FFF75DFF0023637700252A
:104E2000A57688E7A37F2BB9E07FE3772146FFF7DC
:104E30007DFDF4E70020F9E7637FA07E032B06D118
:104E400020F00400A076E068FEF796F8B1E710F0D5
:104E5000040FAED010256EE7638AA3820A4B1B684D
:104E60000022DA8421460120FFF760FD054662E753
:104E7000A37E13F0040FECE7A37EDB077FF55AAFA8
:104E8000667096E7FC01FF1FBC0BFF1FF0B5AB4D32
:104E9000034695F90000834285B0164606D095F981
:104EA00020209A4240F0F781184620350139072921
:104EB00000F26E81DFE811F02900080012003000D6
:104EC0006C012900E801EB0101232B770023AB776C
:104ED00029460A20FFF72AFD04460DE06A7F0024D8
:104EE000012AAC7708D02A7F042A08D1184602F09C
:104EF000F7FD01232B770824204605B0F0BDE87F9D
:104F0000EC772946FFF712FDF6E70024AC83224632
:104F1000152102F03FFAEFE72B7F012B12D18849D0
:104F2000304601F03EFB68B1864B1B78DF0704D5A5
:104F30000921304403F05AFF687602232B77294673
:104F40000C20C7E72B7F022B1BD17F49304601F095
:104F500028FBB0B17B4B1B78DC070DD50A21304410
:104F600003F044FF6B7E1843C0B2687620B104237F
:104F70002B7729460E20ADE703232B7729460D20FA
:104F8000A8E72B7F032B40F07C817049304601F06D
:104F900008FB10B1294610209CE76D49304601F00E
:104FA00000FB10B12946112094E76A49304601F010
:104FB000F8FA10B1294612208CE76749304601F013
:104FC000F0FA08B3AA7E12F001020ED095F90000A3
:104FD00002F086FDAB7E980703D595F9010002F03B
:104FE0007FFD0023AB76102486E7039202F07CF964
:104FF00001230146E882039A95F90100AB7602F09D
:10500000C9F92946182065E75449304601F0C9FA24
:1050100010B1294613205DE75149304601F0C1FA2D
:1050200010B12946142055E74E49304601F0B9FA2F
:105030000028EED14C49304601F0B3FA50B305F1E7
:1050400008073946304401F076FA044622782F2AC0
:10505000234604F10104F9D82B221A70FCF76EFAEA
:105060000002E88223461A46013311782F29FAD824
:10507000002313702046FCF761FAEB8A1844E8829B
:1050800039463A480422FCF778FA29460028C1D16B
:1050900019201FE73649304601F083FA48B3AC7E49
:1050A00014F0010414D029460F20FFF73FFC002321
:1050B0006B82AB82AB7E0028D4BF00240124990709
:1050C00003D529462820FFF731FC01236B7713E72E
:1050D00028786B7820F03F00184340B26870009445
:1050E000EA8A142305F1080102F090FC0028ECDAAA
:1050F00058E72049304601F054FA0446002849D0C8
:1051000028786B7820F03F001843AB7E40B213F054
:105110000103687030D005363046FDF7D6FEE860F2
:10512000304601F057FAE876A87E10F001002DD045
:1051300003236B7729460F20CCE600BFFC01FF1F3D
:105140004A000100CC0AFF1F500001005600010078
:105150005B000100600001006400010069000100C3
:105160006E0001007200010078000100D607010006
:105170007E000100830001000093EA8A142305F1F8
:10518000080102F043FC0028C5DA0BE702236B7725
:105190000024B1E64149304601F003FAE0B105369A
:1051A0003F49304601F0FDF948B14FF4BA214FF4C0
:1051B0001030FDF7D9FE6C60294616208AE630468D
:1051C000FDF783FE0446FDF78BFE411D2046FDF7EB
:1051D000CBFEA4F51034EEE73249304601F0E1F998
:1051E000044660B173792F2B3FF4DCAE701DFDF7E0
:1051F0006CFEA0F510306860294617206AE62A493F
:10520000304601F0CEF9002833D028786B7820F0B2
:105210003F00184340B2687073792F2B07D1AB7EE3
:105220009A0701D502F05CFC0023AB76BAE6701D4C
:10523000FDF74BFEE860FDF753FE70B10094EA8A7B
:1052400095F90100142305F1080102F0DFFB0028A5
:1052500003DB06236B776C604EE6AB7EDB077FF5E6
:10526000A1AE00246C6029462920FFF75FFB0723CD
:105270002CE70E49304601F094F9294610B11B2065
:1052800028E62946152025E62946022022E62C7F1D
:105290000CB92B7030E602242EE600BF8900010015
:1052A0008F00010093000100990001009F000100A0
:1052B0002DE9F843134C94F90030013305461DD114
:1052C000114BDFF84C90114F197002264FF0000877
:1052D0004A462946102001F0D3FF002215212070F4
:1052E00002F058F83A467821082084F81C8001F032
:1052F000C7FF012E607004F1200401D1BDE8F883DE
:105300000126E5E7FC01FF1FCC0AFF1F194D000035
:105310008D4E000038B50B4C94F9000002F02CF8CB
:1053200094F9010002F028F8FF2594F92000257077
:1053300002F022F894F9210002F01EF884F82050BF
:1053400038BD00BFFC01FF1F2DE9F04F8DB00C46AA
:10535000049005931546002A67D18D8BCD8781F87F
:1053600041208A8394F8423023F0210384F84230AC
:105370000023A9460393A38B0693A9EB05039AB2D6
:105380000792049A94F82280A58312FA83F30B9370
:10539000ADF82850B8F1000F15D11346059A134403
:1053A000029304F11C0BBDF8282062B10B9B591C21
:1053B0000B911878A32864D1032A3CD8A38B9B1A9D
:1053C000A383AD1AADB2079B039A94F842102B4405
:1053D0009EB2A38B1A4493B2069AA9EB03071A4410
:1053E00092B2BFB2A283002F00F00181002D00F025
:1053F000FE800598F519854280F2F980C80700F112
:10540000F680824BA0691B6806F114011944636899
:10541000104418443A4605F0CDFBA38B03969B1B22
:105420001FFA85F9A3833D46A5E791F84130013382
:1054300081F8413096E7981C0B905B78642B35D04F
:1054400025D8442B32D0482B4ED000270B9B02335B
:105450000B93BDF82830033BADF828308FB1029B89
:1054600001930AAB0093BDF82A105B460BAA38469D
:1054700003F03AFC03B223B10B9B2D1AADB2002B03
:10548000A1D0BDF82830013BADF828308BE7732B55
:105490000CD0762BD9D15E4B1F68002FD6D0234677
:1054A0000DF12A020021B8470746CFE7594A126892
:1054B00022B1732B18BF084690478046B8F1000F01
:1054C00000F09380B8F1020F04D10723524FADF8DA
:1054D0002A30BBE7B8F1030F4FF008030CBF4F4F62
:1054E0004F4FADF82A30B1E7494B1F68002FADD0C0
:1054F00094F84230990604D543F0010384F8423011
:105500005CE794F841300DF1240A04EB43030146B3
:10551000022250469E8904F0B9FA0B9B02330B938A
:10552000BDF828300136033BB6B2ADF82830384B11
:105530000DF12A021F68314623465046B84794F8B9
:105540004230074668B943F0200384F842300B9B91
:105550002082023B0B93BDF828300333ADF828308E
:1055600074E75B07BDF82A0018D50438ADF82A00A7
:10557000BDF82A10029B019304310AAB0093384610
:105580005B460BAA89B203F0AFFB94F842309F0749
:105590000AD503F0080384F8423014E704222021DE
:1055A000384404F071FBE3E70B9A2D1AADB282B1D7
:1055B000E28BAA4216D294F8412004EB420243F057
:1055C0000103D68184F84230A38B043BA383043DBE
:1055D000F8E694F8412004EB4202013ED68143F004
:1055E0000103D8E70136B6B2A1E747462EE7E28FBE
:1055F000134401F00801A3EB0909304684F8421076
:10560000A4F83E900DB0BDE8F08F00BFD00AFF1F98
:10561000D80AFF1FDC0AFF1F5A0201002203010003
:105620000005010038B50C4D0C49044628683722A6
:10563000143004F02BFA3722032384F82130296830
:1056400094F92000A283082301F0E1FE0028D4BFD2
:105650000020012038BD00BFD00AFF1FEA02010070
:105660002DE9F843DFF8CC80134604460A4690F94A
:1056700020000D46D8F8001001F0C9FE0028CCBF6C
:105680004FF001094FF0000946DD94F84030013336
:10569000DBB2012B84F840303ED8244BA78B1A682C
:1056A000E389568C2382D4E90531C819834233D962
:1056B000761BB6B286B35B1ADF1BE38BD584BDB213
:1056C0009D4228BF1D46AE4229D39E4228BF1E469A
:1056D0006368D8F8001018442A46143105F06AFAB5
:1056E000134BE5871B78DB071BD5D8F800002A464B
:1056F000334621461430FFF727FE0546E38F9F42CD
:1057000094BF082300233DB1D8F8001094F920007D
:10571000A5872A4601F07BFE4846BDE8F88335465A
:10572000D6E7A38B2B44A383E8E700BFBC0BFF1F86
:10573000F40AFF1FD00AFF1F38B50D46084904467A
:10574000FBF73DFF2946FBF73AFF0649FBF737FF1A
:1057500005490238FBF733FF001B023880B238BD21
:10576000C5010100F8010100D40101002DE9F0415B
:105770000D461746274913220646984604F086F937
:1057800095F82230013B06F11100082B3FD8DFE8E5
:1057900003F0383C3632343E053E3A001E49FFF7EE
:1057A000CBFF00F11304A4B2B8F1000F05D06B6970
:1057B0006A681B1B22446A606B61B5F81E806B69C6
:1057C000A8EB04081FFA88F8434596BF1FFA83F830
:1057D000002308233B7068684246311905F0EAF956
:1057E0006B681B1B6B606B6908EB040023446B61E7
:1057F00080B2BDE8F0810949D1E70949CFE70949FD
:10580000CDE70949CBE70949C9E70949C7E70020BE
:10581000C7E700BF1F050100FD01010008020100EC
:105820001102010028020100320201003C020100C5
:105830004602010073B508230C468DF80730002896
:105840004ED091F82130022B02D803782F2B01D8AB
:1058500030230370FDF739FB0A2384F82230054614
:10586000FDF73EFB0223606184F8213028B94FF434
:10587000DB731D4D636184F8220094F822300A2BFB
:1058800005D1012204F12201281D05F093F9174EDC
:1058900030680535656000230DF10702214614309C
:1058A000FFF764FF124B134D1B78A08313F0010F19
:1058B0000BD02A68E38B528C3068934228BF134682
:1058C000214600221430FFF73FFD2B680022DA84C6
:1058D00001469DF807202046FFF7C2FE02B070BDCA
:1058E0004D68053DC9E700BF3A030100D00AFF1F1C
:1058F000F40AFF1FBC0BFF1FF8B54569AA42044616
:105900000E461AD20E2380F82130A2B1AD1A4261A0
:10591000FA2763690020F054314603F09FFA0E4BDA
:10592000801B013860611B68224631463846984723
:10593000FA2F0AD165610020F8BD022380F82130DA
:10594000064B0025DD73FB27E3E7214604F1440005
:10595000BDE8F840FFF76EBFD40AFF1FE00AFF1F43
:105960002DE9F84F90F82130052B04460E461546D8
:1059700010D1974BDA7B002A40F02681062180F86F
:10598000211001211860D97380F84320904F4FF007
:1059900000081DE0062BF9D94FF0000894F82130DB
:1059A0000E2B40F00C812A4631466AE0FB7B9A06BA
:1059B00042BF626902F1FF32626113F0080213D044
:1059C00032780D2A07D123F008025B07FA7307D556
:1059D000002DEBD1E2E794F84330013384F84330F3
:1059E000013D0136ADB2F3E7DFF8F4C1DFF8E4E1E1
:1059F000E34691461EF8011BDCF8000096F800A073
:105A0000405C824540F08A809CF804000131C9B2B4
:105A100088420EF8011C40F083800BEBC20205F1B6
:105A2000FF395279013A06F1010A0A2A14D8DFE84F
:105A300002F0060C204A544D4D4D4D4D4D0023F0C3
:105A4000020343F04803FB7306E043F00403B01C79
:105A5000FB73FBF773FD60615E480B22002104F0CD
:105A600013F994F82130082BBAD956461FFA89F554
:105A700094E758070DD594F843203AB91FFA89F2F4
:105A800051462046BDE8F84FFFF736BF43F02003EC
:105A9000FB73FB7B13F0120FDED0636994F8432095
:105AA000083B9B1A63614C4B22461B680021FF2078
:105AB000984708B10A2303E0FB7BD906FAD50923EE
:105AC00084F82130C8E743F00203BCE79A07C3D546
:105AD00023F0020343F01003B5E7DFF808B13F4BB2
:105AE000DBF80000591C1522143003F0CFFF1623F9
:105AF0000121C4E905311522384B63600A2184F87D
:105B0000221094F92000DBF80010A283082301F092
:105B10007EFC0028C8BF4FF001089DE70EF8019CED
:105B200001320B2A0CF1080C7FF464AF58E7676967
:105B3000AF4238BFBDB20A2B11D02368002B31D140
:105B4000254B65611B6822463146FC2098476761FA
:105B50002DB1D4E90032934204BF05336360666916
:105B60006268761B2A446661626056BB04F12201BA
:105B70002068FDF7B7FA164BDE732268164B666095
:105B8000014602B1A0B11B6822460021FE209847C1
:105B9000022384F82130214670B10020BDE8F84F7F
:105BA000FFF748BE60682A463146FDF7E5F9CFE7C2
:105BB0001B682246FD20EAE704F14400EEE7002DD1
:105BC000B5D14046BDE8F88F4FF01008F9E700BFA7
:105BD000E00AFF1FE40AFF1FD40AFF1F08050100A7
:105BE00034050100D00AFF1F2DE9F7431E46A64BDE
:105BF0001C6880460F46154604F5907394F92020E2
:105C0000424540F010827B1E0B2B10D8DFE813F0CA
:105C1000370057006700F0000F0037007F000C00CE
:105C20000F000F006400DF0094F821300BB100205A
:105C300014E0964B1B781F0713D5954B1B682BB9A7
:105C4000012384F8213084F82080F0E7284661227F
:105C500000F8012D98470128F2D0022003B0BDE8DA
:105C6000F083DE06ECD58A4B1B68002BE8D0284673
:105C7000622200F8012D98470128E1D1EDE7A568DF
:105C80003DB1844B1E6826B10022234601211046F7
:105C9000B04748220021204603F0F6FF7E4BA56066
:105CA000DA7B84F8208022B11A68A24204BF002265
:105CB000DA7300221146404601F06CFBB7E702237D
:105CC00084F82130754B1B689B8CB3F5AF6F88BF90
:105CD0004FF4AF63E383AAE7A369002BA7D094F83E
:105CE0002130032B04D1404601F0FAFE0820B5E72D
:105CF000A28BA36900211344032FA361A18306D1C2
:105D0000238AA381042204F10E0003F0BDFF634B3C
:105D10001968002284F84020CA8494F82130032BAB
:105D200005D1204603B0BDE8F043FFF77BBC012B53
:105D30007FF67DAFD4E90530834256D98DF8072030
:105D4000E58B1B1A9D4224BF08228DF80720488C42
:105D500028BF1D46A84203D200283FF47FAF054666
:105D60004F4EA3693068A5831430002B36D1012330
:105D70000DF107022146FFF7F9FC0546434B1B785E
:105D8000D8071DD5454AE38B12683068528C934280
:105D900028BF1346214600221430FFF7D5FA0546E6
:105DA00070B994F8423019075EBF336820221A7523
:105DB0004FF00003A383A389E38158BF0125238209
:105DC0009DF80720A9B22046FFF74AFC46E70125C7
:105DD000002384F840508DF80730C1E7676801461A
:105DE0002A46F81804F0E6FEC8E794F920007BE79D
:105DF000D4F8048094F82130B8F1000F40F00F81FE
:105E0000032B18D8274903222846FBF7B6FB50B1CD
:105E1000254904222846FBF7B0FB08B110201DE7F6
:105E2000052384F82130002EF8D015F8013B013EFF
:105E30002F2BB6B2F7D194F82130042B36D9052B8D
:105E400017D12B782A2B03D02846FDF73EF8804641
:105E50006B7884F84430284600F0BCFBC4F800801E
:105E600084F82200B8F1000F0BD0C4F8048000239E
:105E7000636132462946204603B0BDE8F043FFF790
:105E80006FBD01236360F2E7F00AFF1FF40AFF1FF2
:105E9000DC0AFF1FD80AFF1FE00AFF1FBC0BFF1F11
:105EA000D00AFF1FF9040100FC04010006220021B2
:105EB00004F10C0003F0E8FE94F82130DFF874815F
:105EC000032B02D82A78202A6ED198F80020520796
