:08000000FCFF0220050E0000C8
:100400000000000000000000FFFFFFFFBE01FFFF33
:1004100008B5054B187000EB8000800000F0C8F9AB
:10042000024B186008BD00BFF401FF1FF801FF1F59
:100430002DE9F843058A954228BF154604460F4624
:100440000DB3D0F80480C66808EB0503B3424360DF
:100450001ED3A6EB08060368B6B2A5EB06094B440B
:10046000436000F055FB4FB132464146384600F03C
:100470009BFB21684A46B81900F096FB00F040FB50
:10048000238A5B1B238200F043FB2846BDE8F883E8
:1004900000F03EFB002FF1D02A4641463846EBE7FC
:1004A0002DE9F3411A4F01911D469DF82030164663
:1004B0003A6803EB830302EB83024FEA83089468F4
:1004C00000F01EFB052D0BD0062D12D0042D019936
:1004D00008D0002500F01CFB284602B0BDE8F081E2
:1004E000258AF7E73246204602B0BDE8F041FFF723
:1004F0009FBF012E02BF3B684344DC6834B12368D0
:10050000258AC4E9013300232382E3E72546E1E796
:10051000F801FF1F2DE9F041044616460F4600F092
:10052000EFFA638A228AE18AD4F808801A44901983
:100530008842C4BF8A1A96B233446382E36808EBE8
:1005400006059D4228BF2368A56021BF6D1AA560DE
:10055000ED1A751B2CBFADB2354600F0D9FA2A460C
:100560003946404600F020FBAE4204D02068721BA2
:10057000791900F019FB00F0C3FA628AA18AB2422D
:100580000BD1238A0B44334423820023A38263824A
:1005900000F0BEFA3046BDE8F0817318921BA382CA
:1005A0006282F5E770B50B4B1A680B4B1D7800247F
:1005B000E3B29D4201D8002007E05668864205D18B
:1005C000167C8E4202D1581CC0B270BD1432013468
:1005D000EEE700BFF801FF1FF401FF1F2DE9F84F00
:1005E0008146104617469A46FFF7DCFF88460146CB
:1005F00018B100252846BDE8F88FFFF7D3FF054660
:100600000028F6D01C4A14266FF0130316FB0033A3
:1006100016681E44B9F800309BB1504600F0C8F887
:100620000446B06068B1B9F800B0584600F0C0F8B0
:100630000028DED0C4E90000A0605844E060A4F8BF
:1006400016B0B9F802309BB1504600F0B1F804463C
:10065000F06068B1B9F80290484600F0A9F80028A7
:10066000C7D0C4E90000A0604844E060A4F8169038
:10067000776086F81080BDE7F801FF1F032807B5F3
:100680004FF000000BD113891168ADF80430ADF8BC
:100690000600044A0978182301A8FFF79FFF03B05A
:1006A0005DF804FBA104000073B50A4643780178A5
:1006B0009942054624D18678124801923146FFF7C7
:1006C00071FF044680B16FF01303142010FB043057
:1006D0000D4B019A1C68EB780444032BA06806D1EB
:1006E000C48A008A241AA4B2204602B070BD2946EA
:1006F000FFF710FF0421044670B200F099F9F3E708
:100700000024F1E7A1040000F801FF1F034613B520
:1007100008462BB9114602B0BDE81040FFF7C4BF30
:10072000FF2B0ED00848013B0068DCB204EB8403C9
:1007300000EB8303187C00945C680323A04702B09D
:1007400010BD0020FBE700BFF801FF1F00F012BA48
:1007500008B56C2000F050F918B9BDE8084000F069
:10076000F3BA08BD13B50E4B00221A800D4B0E4A8A
:1007700019600E4B147819600278A24209D14288A0
:100780001144196055220DF10703994205D902B0B1
:1007900010BD002AFBD00430EEE701F8012BF4E78E
:1007A000FC01FF1F0002FF1FF001FF1F0402FF1FDB
:1007B000F8B50E4F0E4E3C6833880E4A1C44A30712
:1007C0001CBF24F003040434126823189A4205461F
:1007D0000AD902460021204600F04CFA3A68A21AD3
:1007E000154435802046F8BD0024FBE70002FF1FBA
:1007F000FC01FF1F0402FF1F2DE9F74FDFF86C918A
:10080000DFF86C8101920023C9F80030C8F800308D
:10081000544B93F90030824691F90040F4B1A34261
:1008200048D10D466C1A15F9016FE4B2002EF9D1CA
:1008300004EB840080000430FFF7BAFF6FEA040C79
:10084000AC44C8F80000024635461CF901BFBBF1B4
:10085000000F2DD1C2F800B0002832D1424B002247
:100860001A6000F06FF9204603B0BDE8F08F103138
:10087000D1F800E0BEF1000FE7D09EF800305B45F4
:10088000F5D14B68C2E900E30B8913810BB1013646
:10089000F6B2B1F80AE08B899381A2F80AE05EEA29
:1008A0000303897BD1731CBF0135EDB21432CCE751
:1008B0005146DDE70A4611F9010F0028FAD1911CD3
:1008C000AAE7EDB105EB45008000043080B2FFF7E8
:1008D0006FFFD8F80020C9F800005946DC464FF0F9
:1008E000010E4FF6FF7A136813BB09B1C9F8000077
:1008F000D9F8003005EB4505A3EB8505C9F8005094
:10090000019B3344D8B2FFF783FD002EA6D0D8F860
:100910000050FF262B68002BA0D02B8933B12A462C
:1009200001210320FFF7AAFEC8B1A8731435F1E72F
:1009300053893BB1534508BFA2F80AC053894360AD
:10094000012302E09389002BF9D147680FB180F8A9
:1009500009E013B140F80C2B01211432C3E7AE7348
:10096000E4E700BFF001FF1F1002FF1F0C02FF1F92
:100970000802FF1F1F4B73B51C680025143454F880
:10098000143CA4F114060BB902B070BD14F8053C78
:1009900013F00D0F2CD000F0B3F834F8083C1BB95D
:1009A00014F8053CDB071DD414F8043C9BB18DF80A
:1009B00000508DF8015054F8142C12788DF8022054
:1009C0006946052200208DF803508DF80430FFF7AA
:1009D0009DFE04F8045C14F8053C13F00A0308BFFC
:1009E00004F8053C00F094F854F8103C3046984761
:1009F0001434C4E70802FF1F38B50C4B1C680546C9
:100A000000F07EF804F1140252F8140C50B112F800
:100A1000051C11F00D0F06D00378AB4203D000F097
:100A200077F8012038BD1432EEE700BF0802FF1F3F
:100A300038B5144B1C6823680BB31B7883421FD155
:100A4000C1B9114B1D6815B9E17318E00C352B685D
:100A5000002BF9D0A342F9D100F052F8A3891BB1C1
:100A60000A4A126813446B600023E373BDE8384000
:100A700000F04EB84A07E7D5E37B1B07E4D538BD45
:100A80001434D8E70802FF1F0C02FF1F1002FF1FDB
:100A90001449154B0A681B68013230B50A6023B14E
:100AA0000C33042553F80C2C02B930BD13F8030C99
:100AB00098B153F8080C0C68A0420ED1D47B14F006
:100AC000020F05D1240758BFD57313F8044C1474D2
:100AD000928922B1024443F8082C0C33E2E703F870
:100AE000032CFAE71002FF1F0C02FF1F704770472C
:100AF00070477047704770477047704770470000F5
:100B000072B6024A13680133136070471402FF1F64
:100B1000034A1368013B136003B962B6704700BF14
:100B20001402FF1F08B54FF0E0234FF00072C3F826
:100B3000042DFFF7E5FFFFF7ABFFBDE80840FFF727
:100B4000E7BF0000084B094ADA634FF0E023084A88
:100B50009A615A61D3F8202D42F07042C3F8202DDB
:100B600007221A61704700BF0000FF1F250B00001D
:100B70007F8D5B000A4908B50B88DB0709D5FFF7B5
:100B8000BFFF4AF202638B814BF280438B81FFF7F8
:100B9000BFFF044B4FF08062C3F80C2108BD00BFBB
:100BA0000020054000F00F400E2AF0B508D8431E83
:100BB0000A44914241D011F8014B03F8014FF8E784
:100BC0002B4BB3F8F6301BB2002BF0D10346024496
:100BD00011F00306A2EB030530D1254C01229F073B
:100BE000A4F8F6203BD0DF072DD5A4F8F420A4F814
:100BF000E660A4F8E4202A461D4C0126C4F8E01063
:100C0000C4F8F030C4F8E820A4F8FC608E18B4F8FA
:100C1000FC703F06FBD5013A134429448E4221D192
:100C2000134B40F20222A3F8E6200422A3F8F4209A
:100C3000A3F8E4200022A3F8F620F0BD11F8014B40
:100C400003F8014BC4E70226A4F8F460A4F8E460BA
:100C500040F2011625F00102A4F8E660CCE725F089
:100C60000302C9E716F8012B03F8012FD6E700BFEE
:100C7000009100400E2AF7B5C9B2024405D80346D8
:100C8000934235D003F8011BFAE71D4BB3F8F63059
:100C90001BB2002BF3D10B0443EA01230B4343EABD
:100CA00001630193034613F00307A2EB030521D16F
:100CB000134A25F0030401260DF1040CA2F8F66096
:100CC000C2F8E0C0C2F8F030C2F8E840A2F8E47020
:100CD0001C44A2F8FC602B449C420ED1B2F8FC30BC
:100CE0001B06FBD50423A2F8E4300023A2F8F6305B
:100CF00003B0F0BD03F8011BD5E704F8011BEBE7D7
:100D00000091004000F580204930002A30B54FEABC
:100D1000003016DA22F0004222F4EE6222F00402E1
:100D200003230124DD4309E0214205D003682B4061
:100D30001343036021EA0401043064000029F3D165
:100D400030BD40F27773ECE7134B4FF0E021D1F860
:100D5000100D1A78D2B230BFD1F8101D490715D541
:100D60000E49097811F0280F10D03321197158213C
:100D7000597199798906FCD599794906FCD51A707B
:100D8000054A937903F00C030C2BFAD14FF0E023C2
:100D9000C3F8100DFFF7BCBE0040064000E007405E
:100DA000104A114B11499B1A013B0AD21049114BB1
:100DB00099420BD1104A114B00219B1A013B0ED2D4
:100DC000704711F8010B02F8010BEDE70C4AD21A3B
:100DD000013AEFD311F8010B03F8010BF8E702F821
:100DE000011BEBE7F001FF1FF101FF1F881000005E
:100DF0001004000010040000F401FF1F1802FF1F80
:100E00000E100000674A684908B5936B43F400630D
:100E10009363664BD3F8942022F04002C3F89420E9
:100E2000634AC2F88010D3F8903013F0400F614B42
:100E30004DF628124CF22051D981DA811FBF4FF4B0
:100E4000C872DA8000229A800CBF4FF4E97240F237
:100E5000C1121A80584B08229A70524A936B43F47D
:100E6000005393634FF080614FF4A2720420FFF7A8
:100E700049FF4E4BD3F8002142F08062C3F80021B5
:100E8000D3F8142142F08062C3F81421A3F51B2388
:100E9000A0225A70A8221A709A79D006FCD49A79A6
:100EA00002F00C02082AFAD133221A7158225A7120
:100EB000424B9A799106FCD59A795206FCD5394A6B
:100EC0004FF09271516428221A703C4A937903F0D2
:100ED0000C030C2BFAD14FF0E022394BC2F8083D3D
:100EE000384ADA60384A39491A61394A5A61996090
:100EF000384A39499A619963384A39491A63D9623B
:100F0000384A3949DA6340338B421A6001D00433DE
:100F1000FAE7FFF745FF4FF0E0223449D2F8883D69
:100F200043F47003C2F8883D314B2A221A70A3F5AE
:100F3000EC2300221A6003F58053184604338B42D9
:100F40000260FAD12B4B0122A3F8FE202A4A042486
:100F50004021A3F8E440A3F8F44011730F21D170AD
:100F600040F20222A3F8E6204FF040234FF48072B3
:100F70001A61C3F810214FF0E0236FF07F429A61AD
:100F80005A611A6905221A6100F040F81B491C4891
:100F9000FFF7E8FB1B491C482246FFF72DFCFFF733
:100FA000E9FCFCE7008004400301400000F00F4032
:100FB00000B004400020054000D00740004006403B
:100FC0000000FF1FED0A0000EF0A0000F70A000012
:100FD000F10A0000F30A0000FB0A0000F50A000015
:100FE000F90A0000FD0A00009401FF1F0092004072
:100FF00000E0074000910040008100401802FF1F00
:0E1000004E100000491000005810000070470C
:1010100048544D004A50470047494600504E47004B
:10102000435353004A530042494E00545854004918
:10103000434F00424D50003F3F3F0057646F6700F1
:101040006C6F77506F7765720001576C000001007C
:1010500000FC0000000000003B1000004D070000F5
:1010600000000000040001004010000051070000D3
:10107000000000000000010000000000000000006F
:08108000000000000000000068
:011088000166
:0400000300000410E5
:00000001FF
